{
  "_format": "hh-sol-artifact-1",
  "contractName": "Helper",
  "sourceName": "contracts/core/Helper.sol",
  "abi": [
    {
      "inputs": [
        {
          "internalType": "address",
          "name": "currentOwner",
          "type": "address"
        },
        {
          "internalType": "address",
          "name": "currentManager",
          "type": "address"
        },
        {
          "internalType": "address",
          "name": "currentZSToken",
          "type": "address"
        },
        {
          "internalType": "address",
          "name": "currentZSSharePool",
          "type": "address"
        }
      ],
      "stateMutability": "nonpayable",
      "type": "constructor"
    },
    {
      "inputs": [
        {
          "internalType": "address",
          "name": "owner",
          "type": "address"
        }
      ],
      "name": "OwnableInvalidOwner",
      "type": "error"
    },
    {
      "inputs": [
        {
          "internalType": "address",
          "name": "account",
          "type": "address"
        }
      ],
      "name": "OwnableUnauthorizedAccount",
      "type": "error"
    },
    {
      "inputs": [
        {
          "internalType": "address",
          "name": "token",
          "type": "address"
        }
      ],
      "name": "SafeERC20FailedOperation",
      "type": "error"
    },
    {
      "anonymous": false,
      "inputs": [
        {
          "indexed": true,
          "internalType": "address",
          "name": "previousOwner",
          "type": "address"
        },
        {
          "indexed": true,
          "internalType": "address",
          "name": "newOwner",
          "type": "address"
        }
      ],
      "name": "OwnershipTransferred",
      "type": "event"
    },
    {
      "inputs": [
        {
          "internalType": "address",
          "name": "newManager",
          "type": "address"
        }
      ],
      "name": "changeManager",
      "outputs": [],
      "stateMutability": "nonpayable",
      "type": "function"
    },
    {
      "inputs": [
        {
          "internalType": "uint8",
          "name": "size",
          "type": "uint8"
        },
        {
          "internalType": "uint32",
          "name": "index",
          "type": "uint32"
        },
        {
          "internalType": "uint32",
          "name": "count",
          "type": "uint32"
        }
      ],
      "name": "distribute",
      "outputs": [],
      "stateMutability": "nonpayable",
      "type": "function"
    },
    {
      "inputs": [
        {
          "internalType": "uint32",
          "name": "",
          "type": "uint32"
        },
        {
          "internalType": "uint32",
          "name": "",
          "type": "uint32"
        }
      ],
      "name": "lpShareIfDistribute",
      "outputs": [
        {
          "internalType": "bool",
          "name": "",
          "type": "bool"
        }
      ],
      "stateMutability": "view",
      "type": "function"
    },
    {
      "inputs": [],
      "name": "manager",
      "outputs": [
        {
          "internalType": "address",
          "name": "",
          "type": "address"
        }
      ],
      "stateMutability": "view",
      "type": "function"
    },
    {
      "inputs": [],
      "name": "owner",
      "outputs": [
        {
          "internalType": "address",
          "name": "",
          "type": "address"
        }
      ],
      "stateMutability": "view",
      "type": "function"
    },
    {
      "inputs": [],
      "name": "renounceOwnership",
      "outputs": [],
      "stateMutability": "nonpayable",
      "type": "function"
    },
    {
      "inputs": [
        {
          "internalType": "address",
          "name": "_newOwner",
          "type": "address"
        }
      ],
      "name": "transferOwner",
      "outputs": [],
      "stateMutability": "nonpayable",
      "type": "function"
    },
    {
      "inputs": [
        {
          "internalType": "address",
          "name": "newOwner",
          "type": "address"
        }
      ],
      "name": "transferOwnership",
      "outputs": [],
      "stateMutability": "nonpayable",
      "type": "function"
    },
    {
      "inputs": [
        {
          "internalType": "address",
          "name": "",
          "type": "address"
        },
        {
          "internalType": "uint32",
          "name": "",
          "type": "uint32"
        }
      ],
      "name": "userIfEarn",
      "outputs": [
        {
          "internalType": "bool",
          "name": "",
          "type": "bool"
        }
      ],
      "stateMutability": "view",
      "type": "function"
    },
    {
      "inputs": [],
      "name": "zsReserve",
      "outputs": [
        {
          "internalType": "uint256",
          "name": "",
          "type": "uint256"
        }
      ],
      "stateMutability": "view",
      "type": "function"
    },
    {
      "inputs": [],
      "name": "zsSharePool",
      "outputs": [
        {
          "internalType": "address",
          "name": "",
          "type": "address"
        }
      ],
      "stateMutability": "view",
      "type": "function"
    },
    {
      "inputs": [],
      "name": "zsToken",
      "outputs": [
        {
          "internalType": "address",
          "name": "",
          "type": "address"
        }
      ],
      "stateMutability": "view",
      "type": "function"
    }
  ],
  "bytecode": "0x60806040523480156200001157600080fd5b506040516200187d3803806200187d8339818101604052810190620000379190620002ba565b83600073ffffffffffffffffffffffffffffffffffffffff168173ffffffffffffffffffffffffffffffffffffffff1603620000ad5760006040517f1e4fbdf7000000000000000000000000000000000000000000000000000000008152600401620000a491906200033d565b60405180910390fd5b620000be816200018c60201b60201c565b5082600360006101000a81548173ffffffffffffffffffffffffffffffffffffffff021916908373ffffffffffffffffffffffffffffffffffffffff16021790555081600160006101000a81548173ffffffffffffffffffffffffffffffffffffffff021916908373ffffffffffffffffffffffffffffffffffffffff16021790555080600260006101000a81548173ffffffffffffffffffffffffffffffffffffffff021916908373ffffffffffffffffffffffffffffffffffffffff160217905550505050506200035a565b60008060009054906101000a900473ffffffffffffffffffffffffffffffffffffffff169050816000806101000a81548173ffffffffffffffffffffffffffffffffffffffff021916908373ffffffffffffffffffffffffffffffffffffffff1602179055508173ffffffffffffffffffffffffffffffffffffffff168173ffffffffffffffffffffffffffffffffffffffff167f8be0079c531659141344cd1fd0a4f28419497f9722a3daafe3b4186f6b6457e060405160405180910390a35050565b600080fd5b600073ffffffffffffffffffffffffffffffffffffffff82169050919050565b6000620002828262000255565b9050919050565b620002948162000275565b8114620002a057600080fd5b50565b600081519050620002b48162000289565b92915050565b60008060008060808587031215620002d757620002d662000250565b5b6000620002e787828801620002a3565b9450506020620002fa87828801620002a3565b93505060406200030d87828801620002a3565b92505060606200032087828801620002a3565b91505092959194509250565b620003378162000275565b82525050565b60006020820190506200035460008301846200032c565b92915050565b611513806200036a6000396000f3fe608060405234801561001057600080fd5b50600436106100b45760003560e01c80637a92ac6a116100715780637a92ac6a146101675780638da5cb5b14610185578063a3c3828f146101a3578063a3fbbaae146101c1578063f2fde38b146101dd578063fce4f947146101f9576100b4565b80633b1e23a2146100b95780633dc86e52146100e9578063481c6a75146101075780634fb2e45d1461012557806352a8273614610141578063715018a61461015d575b600080fd5b6100d360048036038101906100ce9190610f26565b610229565b6040516100e09190610f81565b60405180910390f35b6100f1610258565b6040516100fe9190610fb5565b60405180910390f35b61010f61025e565b60405161011c9190611011565b60405180910390f35b61013f600480360381019061013a9190611058565b610284565b005b61015b600480360381019061015691906110be565b61031c565b005b610165610966565b005b61016f61097a565b60405161017c9190611011565b60405180910390f35b61018d6109a0565b60405161019a9190611011565b60405180910390f35b6101ab6109c9565b6040516101b89190611011565b60405180910390f35b6101db60048036038101906101d69190611058565b6109ef565b005b6101f760048036038101906101f29190611058565b610a3b565b005b610213600480360381019061020e9190611111565b610ac1565b6040516102209190610f81565b60405180910390f35b60056020528160005260406000206020528060005260406000206000915091509054906101000a900460ff1681565b60045481565b600360009054906101000a900473ffffffffffffffffffffffffffffffffffffffff1681565b61028c610af0565b600260009054906101000a900473ffffffffffffffffffffffffffffffffffffffff1673ffffffffffffffffffffffffffffffffffffffff1663f2fde38b826040518263ffffffff1660e01b81526004016102e79190611011565b600060405180830381600087803b15801561030157600080fd5b505af1158015610315573d6000803e3d6000fd5b5050505050565b600360009054906101000a900473ffffffffffffffffffffffffffffffffffffffff1673ffffffffffffffffffffffffffffffffffffffff163373ffffffffffffffffffffffffffffffffffffffff16146103ac576040517f08c379a00000000000000000000000000000000000000000000000000000000081526004016103a3906111ae565b60405180910390fd5b600080600260009054906101000a900473ffffffffffffffffffffffffffffffffffffffff1673ffffffffffffffffffffffffffffffffffffffff166351cff8d9600160009054906101000a900473ffffffffffffffffffffffffffffffffffffffff166040518263ffffffff1660e01b815260040161042c9190611011565b600060405180830381600087803b15801561044657600080fd5b505af115801561045a573d6000803e3d6000fd5b505050506000600160009054906101000a900473ffffffffffffffffffffffffffffffffffffffff1673ffffffffffffffffffffffffffffffffffffffff1663561379386040518163ffffffff1660e01b8152600401602060405180830381865afa1580156104cd573d6000803e3d6000fd5b505050506040513d601f19601f820116820180604052508101906104f191906111fa565b90506000600160009054906101000a900473ffffffffffffffffffffffffffffffffffffffff1673ffffffffffffffffffffffffffffffffffffffff1663242c135d6040518163ffffffff1660e01b8152600401602060405180830381865afa158015610562573d6000803e3d6000fd5b505050506040513d601f19601f8201168201806040525081019061058691906111fa565b9050600160009054906101000a900473ffffffffffffffffffffffffffffffffffffffff1673ffffffffffffffffffffffffffffffffffffffff166370a08231306040518263ffffffff1660e01b81526004016105e39190611011565b602060405180830381865afa158015610600573d6000803e3d6000fd5b505050506040513d601f19601f8201168201806040525081019061062491906111fa565b60048190555060006004541161066f576040517f08c379a000000000000000000000000000000000000000000000000000000000815260040161066690611273565b60405180910390fd5b60008211801561069357508660ff168261068991906112f1565b8663ffffffff1611155b6106d2576040517f08c379a00000000000000000000000000000000000000000000000000000000081526004016106c99061136e565b60405180910390fd5b8660ff1682116106e457819350610774565b60008760ff16836106f5919061138e565b03610705578660ff16935061074d565b8660ff16868860ff1661071891906113bf565b63ffffffff168361072991906113fc565b111561073a578660ff16935061074c565b8660ff1682610749919061138e565b93505b5b60008663ffffffff1614610773578660ff168661076a91906113bf565b63ffffffff1692505b5b60005b8481101561090757600061078a85610b77565b9050600061079782610c1c565b905060006107a88260045487610cc1565b9050600081118015610827575060001515600660008573ffffffffffffffffffffffffffffffffffffffff1673ffffffffffffffffffffffffffffffffffffffff16815260200190815260200160002060008b63ffffffff1663ffffffff16815260200190815260200160002060009054906101000a900460ff161515145b156108ef576108798382600160009054906101000a900473ffffffffffffffffffffffffffffffffffffffff1673ffffffffffffffffffffffffffffffffffffffff16610cf89092919063ffffffff16565b6001600660008573ffffffffffffffffffffffffffffffffffffffff1673ffffffffffffffffffffffffffffffffffffffff16815260200190815260200160002060008b63ffffffff1663ffffffff16815260200190815260200160002060006101000a81548160ff0219169083151502179055505b86806001019750505050508080600101915050610777565b506001600560008763ffffffff1663ffffffff16815260200190815260200160002060008863ffffffff1663ffffffff16815260200190815260200160002060006101000a81548160ff02191690831515021790555050505050505050565b61096e610af0565b6109786000610d77565b565b600160009054906101000a900473ffffffffffffffffffffffffffffffffffffffff1681565b60008060009054906101000a900473ffffffffffffffffffffffffffffffffffffffff16905090565b600260009054906101000a900473ffffffffffffffffffffffffffffffffffffffff1681565b6109f7610af0565b80600360006101000a81548173ffffffffffffffffffffffffffffffffffffffff021916908373ffffffffffffffffffffffffffffffffffffffff16021790555050565b610a43610af0565b600073ffffffffffffffffffffffffffffffffffffffff168173ffffffffffffffffffffffffffffffffffffffff1603610ab55760006040517f1e4fbdf7000000000000000000000000000000000000000000000000000000008152600401610aac9190611011565b60405180910390fd5b610abe81610d77565b50565b60066020528160005260406000206020528060005260406000206000915091509054906101000a900460ff1681565b610af8610e3b565b73ffffffffffffffffffffffffffffffffffffffff16610b166109a0565b73ffffffffffffffffffffffffffffffffffffffff1614610b7557610b39610e3b565b6040517f118cdaa7000000000000000000000000000000000000000000000000000000008152600401610b6c9190611011565b60405180910390fd5b565b6000600160009054906101000a900473ffffffffffffffffffffffffffffffffffffffff1673ffffffffffffffffffffffffffffffffffffffff166374810021836040518263ffffffff1660e01b8152600401610bd49190610fb5565b602060405180830381865afa158015610bf1573d6000803e3d6000fd5b505050506040513d601f19601f82011682018060405250810190610c159190611445565b9050919050565b6000600160009054906101000a900473ffffffffffffffffffffffffffffffffffffffff1673ffffffffffffffffffffffffffffffffffffffff16634030ea8a836040518263ffffffff1660e01b8152600401610c799190611011565b602060405180830381865afa158015610c96573d6000803e3d6000fd5b505050506040513d601f19601f82011682018060405250810190610cba91906111fa565b9050919050565b60008084118015610cd25750600082115b15610cf157818385610ce49190611472565b610cee91906112f1565b90505b9392505050565b610d72838473ffffffffffffffffffffffffffffffffffffffff1663a9059cbb8585604051602401610d2b9291906114b4565b604051602081830303815290604052915060e01b6020820180517bffffffffffffffffffffffffffffffffffffffffffffffffffffffff8381831617835250505050610e43565b505050565b60008060009054906101000a900473ffffffffffffffffffffffffffffffffffffffff169050816000806101000a81548173ffffffffffffffffffffffffffffffffffffffff021916908373ffffffffffffffffffffffffffffffffffffffff1602179055508173ffffffffffffffffffffffffffffffffffffffff168173ffffffffffffffffffffffffffffffffffffffff167f8be0079c531659141344cd1fd0a4f28419497f9722a3daafe3b4186f6b6457e060405160405180910390a35050565b600033905090565b600080602060008451602086016000885af180610e66576040513d6000823e3d81fd5b3d925060005191505060008214610e81576001811415610e9d565b60008473ffffffffffffffffffffffffffffffffffffffff163b145b15610edf57836040517f5274afe7000000000000000000000000000000000000000000000000000000008152600401610ed69190611011565b60405180910390fd5b50505050565b600080fd5b600063ffffffff82169050919050565b610f0381610eea565b8114610f0e57600080fd5b50565b600081359050610f2081610efa565b92915050565b60008060408385031215610f3d57610f3c610ee5565b5b6000610f4b85828601610f11565b9250506020610f5c85828601610f11565b9150509250929050565b60008115159050919050565b610f7b81610f66565b82525050565b6000602082019050610f966000830184610f72565b92915050565b6000819050919050565b610faf81610f9c565b82525050565b6000602082019050610fca6000830184610fa6565b92915050565b600073ffffffffffffffffffffffffffffffffffffffff82169050919050565b6000610ffb82610fd0565b9050919050565b61100b81610ff0565b82525050565b60006020820190506110266000830184611002565b92915050565b61103581610ff0565b811461104057600080fd5b50565b6000813590506110528161102c565b92915050565b60006020828403121561106e5761106d610ee5565b5b600061107c84828501611043565b91505092915050565b600060ff82169050919050565b61109b81611085565b81146110a657600080fd5b50565b6000813590506110b881611092565b92915050565b6000806000606084860312156110d7576110d6610ee5565b5b60006110e5868287016110a9565b93505060206110f686828701610f11565b925050604061110786828701610f11565b9150509250925092565b6000806040838503121561112857611127610ee5565b5b600061113685828601611043565b925050602061114785828601610f11565b9150509250929050565b600082825260208201905092915050565b7f4e6f6e206d616e61676572000000000000000000000000000000000000000000600082015250565b6000611198600b83611151565b91506111a382611162565b602082019050919050565b600060208201905081810360008301526111c78161118b565b9050919050565b6111d781610f9c565b81146111e257600080fd5b50565b6000815190506111f4816111ce565b92915050565b6000602082840312156112105761120f610ee5565b5b600061121e848285016111e5565b91505092915050565b7f7a7352657365727665207a65726f000000000000000000000000000000000000600082015250565b600061125d600e83611151565b915061126882611227565b602082019050919050565b6000602082019050818103600083015261128c81611250565b9050919050565b7f4e487b7100000000000000000000000000000000000000000000000000000000600052601260045260246000fd5b7f4e487b7100000000000000000000000000000000000000000000000000000000600052601160045260246000fd5b60006112fc82610f9c565b915061130783610f9c565b92508261131757611316611293565b5b828204905092915050565b7f496e646578206f766572666c6f77000000000000000000000000000000000000600082015250565b6000611358600e83611151565b915061136382611322565b602082019050919050565b600060208201905081810360008301526113878161134b565b9050919050565b600061139982610f9c565b91506113a483610f9c565b9250826113b4576113b3611293565b5b828206905092915050565b60006113ca82610eea565b91506113d583610eea565b92508282026113e381610eea565b91508082146113f5576113f46112c2565b5b5092915050565b600061140782610f9c565b915061141283610f9c565b925082820390508181111561142a576114296112c2565b5b92915050565b60008151905061143f8161102c565b92915050565b60006020828403121561145b5761145a610ee5565b5b600061146984828501611430565b91505092915050565b600061147d82610f9c565b915061148883610f9c565b925082820261149681610f9c565b915082820484148315176114ad576114ac6112c2565b5b5092915050565b60006040820190506114c96000830185611002565b6114d66020830184610fa6565b939250505056fea2646970667358221220a7d14bec395c610c127515d68de9ee7a682b44741402aa3487129926b67464d164736f6c63430008170033",
  "linkReferences": {},
  "deployedLinkReferences": {}
}