{
  "_format": "hh-sol-artifact-1",
  "contractName": "Helper",
  "sourceName": "contracts/core/Helper.sol",
  "abi": [
    {
      "inputs": [
        {
          "internalType": "address",
          "name": "currentOwner",
          "type": "address"
        },
        {
          "internalType": "address",
          "name": "currentManager",
          "type": "address"
        },
        {
          "internalType": "address",
          "name": "currentZSToken",
          "type": "address"
        },
        {
          "internalType": "address",
          "name": "currentZSSharePool",
          "type": "address"
        }
      ],
      "stateMutability": "nonpayable",
      "type": "constructor"
    },
    {
      "inputs": [
        {
          "internalType": "address",
          "name": "owner",
          "type": "address"
        }
      ],
      "name": "OwnableInvalidOwner",
      "type": "error"
    },
    {
      "inputs": [
        {
          "internalType": "address",
          "name": "account",
          "type": "address"
        }
      ],
      "name": "OwnableUnauthorizedAccount",
      "type": "error"
    },
    {
      "inputs": [
        {
          "internalType": "address",
          "name": "token",
          "type": "address"
        }
      ],
      "name": "SafeERC20FailedOperation",
      "type": "error"
    },
    {
      "anonymous": false,
      "inputs": [
        {
          "indexed": true,
          "internalType": "address",
          "name": "previousOwner",
          "type": "address"
        },
        {
          "indexed": true,
          "internalType": "address",
          "name": "newOwner",
          "type": "address"
        }
      ],
      "name": "OwnershipTransferred",
      "type": "event"
    },
    {
      "inputs": [
        {
          "internalType": "address",
          "name": "newManager",
          "type": "address"
        }
      ],
      "name": "changeManager",
      "outputs": [],
      "stateMutability": "nonpayable",
      "type": "function"
    },
    {
      "inputs": [
        {
          "internalType": "uint8",
          "name": "size",
          "type": "uint8"
        },
        {
          "internalType": "uint32",
          "name": "index",
          "type": "uint32"
        },
        {
          "internalType": "uint32",
          "name": "count",
          "type": "uint32"
        }
      ],
      "name": "distribute",
      "outputs": [],
      "stateMutability": "nonpayable",
      "type": "function"
    },
    {
      "inputs": [
        {
          "internalType": "uint32",
          "name": "",
          "type": "uint32"
        },
        {
          "internalType": "uint32",
          "name": "",
          "type": "uint32"
        }
      ],
      "name": "lpShareIfDistribute",
      "outputs": [
        {
          "internalType": "bool",
          "name": "",
          "type": "bool"
        }
      ],
      "stateMutability": "view",
      "type": "function"
    },
    {
      "inputs": [],
      "name": "manager",
      "outputs": [
        {
          "internalType": "address",
          "name": "",
          "type": "address"
        }
      ],
      "stateMutability": "view",
      "type": "function"
    },
    {
      "inputs": [],
      "name": "owner",
      "outputs": [
        {
          "internalType": "address",
          "name": "",
          "type": "address"
        }
      ],
      "stateMutability": "view",
      "type": "function"
    },
    {
      "inputs": [],
      "name": "renounceOwnership",
      "outputs": [],
      "stateMutability": "nonpayable",
      "type": "function"
    },
    {
      "inputs": [
        {
          "internalType": "address",
          "name": "_newOwner",
          "type": "address"
        }
      ],
      "name": "transferOwner",
      "outputs": [],
      "stateMutability": "nonpayable",
      "type": "function"
    },
    {
      "inputs": [
        {
          "internalType": "address",
          "name": "newOwner",
          "type": "address"
        }
      ],
      "name": "transferOwnership",
      "outputs": [],
      "stateMutability": "nonpayable",
      "type": "function"
    },
    {
      "inputs": [
        {
          "internalType": "address",
          "name": "",
          "type": "address"
        },
        {
          "internalType": "uint32",
          "name": "",
          "type": "uint32"
        }
      ],
      "name": "userIfEarn",
      "outputs": [
        {
          "internalType": "bool",
          "name": "",
          "type": "bool"
        }
      ],
      "stateMutability": "view",
      "type": "function"
    },
    {
      "inputs": [],
      "name": "withdraw",
      "outputs": [],
      "stateMutability": "nonpayable",
      "type": "function"
    },
    {
      "inputs": [],
      "name": "zsReserve",
      "outputs": [
        {
          "internalType": "uint256",
          "name": "",
          "type": "uint256"
        }
      ],
      "stateMutability": "view",
      "type": "function"
    },
    {
      "inputs": [],
      "name": "zsSharePool",
      "outputs": [
        {
          "internalType": "address",
          "name": "",
          "type": "address"
        }
      ],
      "stateMutability": "view",
      "type": "function"
    },
    {
      "inputs": [],
      "name": "zsToken",
      "outputs": [
        {
          "internalType": "address",
          "name": "",
          "type": "address"
        }
      ],
      "stateMutability": "view",
      "type": "function"
    }
  ],
  "bytecode": "0x60806040523480156200001157600080fd5b5060405162001a5038038062001a508339818101604052810190620000379190620002ba565b83600073ffffffffffffffffffffffffffffffffffffffff168173ffffffffffffffffffffffffffffffffffffffff1603620000ad5760006040517f1e4fbdf7000000000000000000000000000000000000000000000000000000008152600401620000a491906200033d565b60405180910390fd5b620000be816200018c60201b60201c565b5082600360006101000a81548173ffffffffffffffffffffffffffffffffffffffff021916908373ffffffffffffffffffffffffffffffffffffffff16021790555081600160006101000a81548173ffffffffffffffffffffffffffffffffffffffff021916908373ffffffffffffffffffffffffffffffffffffffff16021790555080600260006101000a81548173ffffffffffffffffffffffffffffffffffffffff021916908373ffffffffffffffffffffffffffffffffffffffff160217905550505050506200035a565b60008060009054906101000a900473ffffffffffffffffffffffffffffffffffffffff169050816000806101000a81548173ffffffffffffffffffffffffffffffffffffffff021916908373ffffffffffffffffffffffffffffffffffffffff1602179055508173ffffffffffffffffffffffffffffffffffffffff168173ffffffffffffffffffffffffffffffffffffffff167f8be0079c531659141344cd1fd0a4f28419497f9722a3daafe3b4186f6b6457e060405160405180910390a35050565b600080fd5b600073ffffffffffffffffffffffffffffffffffffffff82169050919050565b6000620002828262000255565b9050919050565b620002948162000275565b8114620002a057600080fd5b50565b600081519050620002b48162000289565b92915050565b60008060008060808587031215620002d757620002d662000250565b5b6000620002e787828801620002a3565b9450506020620002fa87828801620002a3565b93505060406200030d87828801620002a3565b92505060606200032087828801620002a3565b91505092959194509250565b620003378162000275565b82525050565b60006020820190506200035460008301846200032c565b92915050565b6116e6806200036a6000396000f3fe608060405234801561001057600080fd5b50600436106100cf5760003560e01c8063715018a61161008c578063a3c3828f11610066578063a3c3828f146101c8578063a3fbbaae146101e6578063f2fde38b14610202578063fce4f9471461021e576100cf565b8063715018a6146101825780637a92ac6a1461018c5780638da5cb5b146101aa576100cf565b80633b1e23a2146100d45780633ccfd60b146101045780633dc86e521461010e578063481c6a751461012c5780634fb2e45d1461014a57806352a8273614610166575b600080fd5b6100ee60048036038101906100e9919061108d565b61024e565b6040516100fb91906110e8565b60405180910390f35b61010c61027d565b005b6101166103bf565b604051610123919061111c565b60405180910390f35b6101346103c5565b6040516101419190611178565b60405180910390f35b610164600480360381019061015f91906111bf565b6103eb565b005b610180600480360381019061017b9190611225565b610483565b005b61018a610acd565b005b610194610ae1565b6040516101a19190611178565b60405180910390f35b6101b2610b07565b6040516101bf9190611178565b60405180910390f35b6101d0610b30565b6040516101dd9190611178565b60405180910390f35b61020060048036038101906101fb91906111bf565b610b56565b005b61021c600480360381019061021791906111bf565b610ba2565b005b61023860048036038101906102339190611278565b610c28565b60405161024591906110e8565b60405180910390f35b60056020528160005260406000206020528060005260406000206000915091509054906101000a900460ff1681565b610285610c57565b6000600160009054906101000a900473ffffffffffffffffffffffffffffffffffffffff1673ffffffffffffffffffffffffffffffffffffffff166370a08231306040518263ffffffff1660e01b81526004016102e29190611178565b602060405180830381865afa1580156102ff573d6000803e3d6000fd5b505050506040513d601f19601f8201168201806040525081019061032391906112e4565b905060008111610368576040517f08c379a000000000000000000000000000000000000000000000000000000000815260040161035f9061136e565b60405180910390fd5b6103bc610373610b07565b82600160009054906101000a900473ffffffffffffffffffffffffffffffffffffffff1673ffffffffffffffffffffffffffffffffffffffff16610cde9092919063ffffffff16565b50565b60045481565b600360009054906101000a900473ffffffffffffffffffffffffffffffffffffffff1681565b6103f3610c57565b600260009054906101000a900473ffffffffffffffffffffffffffffffffffffffff1673ffffffffffffffffffffffffffffffffffffffff1663f2fde38b826040518263ffffffff1660e01b815260040161044e9190611178565b600060405180830381600087803b15801561046857600080fd5b505af115801561047c573d6000803e3d6000fd5b5050505050565b600360009054906101000a900473ffffffffffffffffffffffffffffffffffffffff1673ffffffffffffffffffffffffffffffffffffffff163373ffffffffffffffffffffffffffffffffffffffff1614610513576040517f08c379a000000000000000000000000000000000000000000000000000000000815260040161050a906113da565b60405180910390fd5b600080600260009054906101000a900473ffffffffffffffffffffffffffffffffffffffff1673ffffffffffffffffffffffffffffffffffffffff166351cff8d9600160009054906101000a900473ffffffffffffffffffffffffffffffffffffffff166040518263ffffffff1660e01b81526004016105939190611178565b600060405180830381600087803b1580156105ad57600080fd5b505af11580156105c1573d6000803e3d6000fd5b505050506000600160009054906101000a900473ffffffffffffffffffffffffffffffffffffffff1673ffffffffffffffffffffffffffffffffffffffff1663561379386040518163ffffffff1660e01b8152600401602060405180830381865afa158015610634573d6000803e3d6000fd5b505050506040513d601f19601f8201168201806040525081019061065891906112e4565b90506000600160009054906101000a900473ffffffffffffffffffffffffffffffffffffffff1673ffffffffffffffffffffffffffffffffffffffff1663242c135d6040518163ffffffff1660e01b8152600401602060405180830381865afa1580156106c9573d6000803e3d6000fd5b505050506040513d601f19601f820116820180604052508101906106ed91906112e4565b9050600160009054906101000a900473ffffffffffffffffffffffffffffffffffffffff1673ffffffffffffffffffffffffffffffffffffffff166370a08231306040518263ffffffff1660e01b815260040161074a9190611178565b602060405180830381865afa158015610767573d6000803e3d6000fd5b505050506040513d601f19601f8201168201806040525081019061078b91906112e4565b6004819055506000600454116107d6576040517f08c379a00000000000000000000000000000000000000000000000000000000081526004016107cd90611446565b60405180910390fd5b6000821180156107fa57508660ff16826107f091906114c4565b8663ffffffff1611155b610839576040517f08c379a000000000000000000000000000000000000000000000000000000000815260040161083090611541565b60405180910390fd5b8660ff16821161084b578193506108db565b60008760ff168361085c9190611561565b0361086c578660ff1693506108b4565b8660ff16868860ff1661087f9190611592565b63ffffffff168361089091906115cf565b11156108a1578660ff1693506108b3565b8660ff16826108b09190611561565b93505b5b60008663ffffffff16146108da578660ff16866108d19190611592565b63ffffffff1692505b5b60005b84811015610a6e5760006108f185610d5d565b905060006108fe82610e02565b9050600061090f8260045487610ea7565b905060008111801561098e575060001515600660008573ffffffffffffffffffffffffffffffffffffffff1673ffffffffffffffffffffffffffffffffffffffff16815260200190815260200160002060008b63ffffffff1663ffffffff16815260200190815260200160002060009054906101000a900460ff161515145b15610a56576109e08382600160009054906101000a900473ffffffffffffffffffffffffffffffffffffffff1673ffffffffffffffffffffffffffffffffffffffff16610cde9092919063ffffffff16565b6001600660008573ffffffffffffffffffffffffffffffffffffffff1673ffffffffffffffffffffffffffffffffffffffff16815260200190815260200160002060008b63ffffffff1663ffffffff16815260200190815260200160002060006101000a81548160ff0219169083151502179055505b868060010197505050505080806001019150506108de565b506001600560008763ffffffff1663ffffffff16815260200190815260200160002060008863ffffffff1663ffffffff16815260200190815260200160002060006101000a81548160ff02191690831515021790555050505050505050565b610ad5610c57565b610adf6000610ede565b565b600160009054906101000a900473ffffffffffffffffffffffffffffffffffffffff1681565b60008060009054906101000a900473ffffffffffffffffffffffffffffffffffffffff16905090565b600260009054906101000a900473ffffffffffffffffffffffffffffffffffffffff1681565b610b5e610c57565b80600360006101000a81548173ffffffffffffffffffffffffffffffffffffffff021916908373ffffffffffffffffffffffffffffffffffffffff16021790555050565b610baa610c57565b600073ffffffffffffffffffffffffffffffffffffffff168173ffffffffffffffffffffffffffffffffffffffff1603610c1c5760006040517f1e4fbdf7000000000000000000000000000000000000000000000000000000008152600401610c139190611178565b60405180910390fd5b610c2581610ede565b50565b60066020528160005260406000206020528060005260406000206000915091509054906101000a900460ff1681565b610c5f610fa2565b73ffffffffffffffffffffffffffffffffffffffff16610c7d610b07565b73ffffffffffffffffffffffffffffffffffffffff1614610cdc57610ca0610fa2565b6040517f118cdaa7000000000000000000000000000000000000000000000000000000008152600401610cd39190611178565b60405180910390fd5b565b610d58838473ffffffffffffffffffffffffffffffffffffffff1663a9059cbb8585604051602401610d11929190611603565b604051602081830303815290604052915060e01b6020820180517bffffffffffffffffffffffffffffffffffffffffffffffffffffffff8381831617835250505050610faa565b505050565b6000600160009054906101000a900473ffffffffffffffffffffffffffffffffffffffff1673ffffffffffffffffffffffffffffffffffffffff166374810021836040518263ffffffff1660e01b8152600401610dba919061111c565b602060405180830381865afa158015610dd7573d6000803e3d6000fd5b505050506040513d601f19601f82011682018060405250810190610dfb9190611641565b9050919050565b6000600160009054906101000a900473ffffffffffffffffffffffffffffffffffffffff1673ffffffffffffffffffffffffffffffffffffffff16634030ea8a836040518263ffffffff1660e01b8152600401610e5f9190611178565b602060405180830381865afa158015610e7c573d6000803e3d6000fd5b505050506040513d601f19601f82011682018060405250810190610ea091906112e4565b9050919050565b60008084118015610eb85750600082115b15610ed757818385610eca919061166e565b610ed491906114c4565b90505b9392505050565b60008060009054906101000a900473ffffffffffffffffffffffffffffffffffffffff169050816000806101000a81548173ffffffffffffffffffffffffffffffffffffffff021916908373ffffffffffffffffffffffffffffffffffffffff1602179055508173ffffffffffffffffffffffffffffffffffffffff168173ffffffffffffffffffffffffffffffffffffffff167f8be0079c531659141344cd1fd0a4f28419497f9722a3daafe3b4186f6b6457e060405160405180910390a35050565b600033905090565b600080602060008451602086016000885af180610fcd576040513d6000823e3d81fd5b3d925060005191505060008214610fe8576001811415611004565b60008473ffffffffffffffffffffffffffffffffffffffff163b145b1561104657836040517f5274afe700000000000000000000000000000000000000000000000000000000815260040161103d9190611178565b60405180910390fd5b50505050565b600080fd5b600063ffffffff82169050919050565b61106a81611051565b811461107557600080fd5b50565b60008135905061108781611061565b92915050565b600080604083850312156110a4576110a361104c565b5b60006110b285828601611078565b92505060206110c385828601611078565b9150509250929050565b60008115159050919050565b6110e2816110cd565b82525050565b60006020820190506110fd60008301846110d9565b92915050565b6000819050919050565b61111681611103565b82525050565b6000602082019050611131600083018461110d565b92915050565b600073ffffffffffffffffffffffffffffffffffffffff82169050919050565b600061116282611137565b9050919050565b61117281611157565b82525050565b600060208201905061118d6000830184611169565b92915050565b61119c81611157565b81146111a757600080fd5b50565b6000813590506111b981611193565b92915050565b6000602082840312156111d5576111d461104c565b5b60006111e3848285016111aa565b91505092915050565b600060ff82169050919050565b611202816111ec565b811461120d57600080fd5b50565b60008135905061121f816111f9565b92915050565b60008060006060848603121561123e5761123d61104c565b5b600061124c86828701611210565b935050602061125d86828701611078565b925050604061126e86828701611078565b9150509250925092565b6000806040838503121561128f5761128e61104c565b5b600061129d858286016111aa565b92505060206112ae85828601611078565b9150509250929050565b6112c181611103565b81146112cc57600080fd5b50565b6000815190506112de816112b8565b92915050565b6000602082840312156112fa576112f961104c565b5b6000611308848285016112cf565b91505092915050565b600082825260208201905092915050565b7f5a65726f00000000000000000000000000000000000000000000000000000000600082015250565b6000611358600483611311565b915061136382611322565b602082019050919050565b600060208201905081810360008301526113878161134b565b9050919050565b7f4e6f6e206d616e61676572000000000000000000000000000000000000000000600082015250565b60006113c4600b83611311565b91506113cf8261138e565b602082019050919050565b600060208201905081810360008301526113f3816113b7565b9050919050565b7f7a7352657365727665207a65726f000000000000000000000000000000000000600082015250565b6000611430600e83611311565b915061143b826113fa565b602082019050919050565b6000602082019050818103600083015261145f81611423565b9050919050565b7f4e487b7100000000000000000000000000000000000000000000000000000000600052601260045260246000fd5b7f4e487b7100000000000000000000000000000000000000000000000000000000600052601160045260246000fd5b60006114cf82611103565b91506114da83611103565b9250826114ea576114e9611466565b5b828204905092915050565b7f496e646578206f766572666c6f77000000000000000000000000000000000000600082015250565b600061152b600e83611311565b9150611536826114f5565b602082019050919050565b6000602082019050818103600083015261155a8161151e565b9050919050565b600061156c82611103565b915061157783611103565b92508261158757611586611466565b5b828206905092915050565b600061159d82611051565b91506115a883611051565b92508282026115b681611051565b91508082146115c8576115c7611495565b5b5092915050565b60006115da82611103565b91506115e583611103565b92508282039050818111156115fd576115fc611495565b5b92915050565b60006040820190506116186000830185611169565b611625602083018461110d565b9392505050565b60008151905061163b81611193565b92915050565b6000602082840312156116575761165661104c565b5b60006116658482850161162c565b91505092915050565b600061167982611103565b915061168483611103565b925082820261169281611103565b915082820484148315176116a9576116a8611495565b5b509291505056fea26469706673582212200573c927362cc2f09ac0b04943c3cc41c9e1b429de0be575dcb403510072507664736f6c63430008170033",
  "linkReferences": {},
  "deployedLinkReferences": {}
}