{
  "_format": "hh-sol-artifact-1",
  "contractName": "ZSCore",
  "sourceName": "contracts/core/ZSCore.sol",
  "abi": [
    {
      "inputs": [
        {
          "internalType": "address",
          "name": "currentOwner",
          "type": "address"
        },
        {
          "internalType": "address",
          "name": "currentManager",
          "type": "address"
        }
      ],
      "stateMutability": "nonpayable",
      "type": "constructor"
    },
    {
      "inputs": [
        {
          "internalType": "address",
          "name": "spender",
          "type": "address"
        },
        {
          "internalType": "uint256",
          "name": "allowance",
          "type": "uint256"
        },
        {
          "internalType": "uint256",
          "name": "needed",
          "type": "uint256"
        }
      ],
      "name": "ERC20InsufficientAllowance",
      "type": "error"
    },
    {
      "inputs": [
        {
          "internalType": "address",
          "name": "sender",
          "type": "address"
        },
        {
          "internalType": "uint256",
          "name": "balance",
          "type": "uint256"
        },
        {
          "internalType": "uint256",
          "name": "needed",
          "type": "uint256"
        }
      ],
      "name": "ERC20InsufficientBalance",
      "type": "error"
    },
    {
      "inputs": [
        {
          "internalType": "address",
          "name": "approver",
          "type": "address"
        }
      ],
      "name": "ERC20InvalidApprover",
      "type": "error"
    },
    {
      "inputs": [
        {
          "internalType": "address",
          "name": "receiver",
          "type": "address"
        }
      ],
      "name": "ERC20InvalidReceiver",
      "type": "error"
    },
    {
      "inputs": [
        {
          "internalType": "address",
          "name": "sender",
          "type": "address"
        }
      ],
      "name": "ERC20InvalidSender",
      "type": "error"
    },
    {
      "inputs": [
        {
          "internalType": "address",
          "name": "spender",
          "type": "address"
        }
      ],
      "name": "ERC20InvalidSpender",
      "type": "error"
    },
    {
      "inputs": [],
      "name": "ReentrancyGuardReentrantCall",
      "type": "error"
    },
    {
      "anonymous": false,
      "inputs": [
        {
          "indexed": true,
          "internalType": "address",
          "name": "owner",
          "type": "address"
        },
        {
          "indexed": true,
          "internalType": "address",
          "name": "spender",
          "type": "address"
        },
        {
          "indexed": false,
          "internalType": "uint256",
          "name": "value",
          "type": "uint256"
        }
      ],
      "name": "Approval",
      "type": "event"
    },
    {
      "anonymous": false,
      "inputs": [
        {
          "indexed": false,
          "internalType": "address",
          "name": "from",
          "type": "address"
        },
        {
          "indexed": false,
          "internalType": "address",
          "name": "to",
          "type": "address"
        }
      ],
      "name": "Bound",
      "type": "event"
    },
    {
      "anonymous": false,
      "inputs": [
        {
          "indexed": false,
          "internalType": "uint256",
          "name": "burnAmount",
          "type": "uint256"
        },
        {
          "indexed": false,
          "internalType": "uint64",
          "name": "time",
          "type": "uint64"
        }
      ],
      "name": "BurnLpZS",
      "type": "event"
    },
    {
      "anonymous": false,
      "inputs": [
        {
          "indexed": false,
          "internalType": "address",
          "name": "staker",
          "type": "address"
        },
        {
          "indexed": false,
          "internalType": "uint256",
          "name": "amount",
          "type": "uint256"
        },
        {
          "indexed": false,
          "internalType": "uint256",
          "name": "time",
          "type": "uint256"
        }
      ],
      "name": "Deposite",
      "type": "event"
    },
    {
      "anonymous": false,
      "inputs": [
        {
          "indexed": false,
          "internalType": "uint256",
          "name": "earnAmount",
          "type": "uint256"
        },
        {
          "indexed": false,
          "internalType": "uint64",
          "name": "time",
          "type": "uint64"
        }
      ],
      "name": "EarnLpZS",
      "type": "event"
    },
    {
      "anonymous": false,
      "inputs": [
        {
          "indexed": false,
          "internalType": "address",
          "name": "inviter",
          "type": "address"
        },
        {
          "indexed": false,
          "internalType": "address",
          "name": "invitee",
          "type": "address"
        }
      ],
      "name": "Invite",
      "type": "event"
    },
    {
      "anonymous": false,
      "inputs": [
        {
          "indexed": false,
          "internalType": "address",
          "name": "payer",
          "type": "address"
        },
        {
          "indexed": false,
          "internalType": "uint256",
          "name": "amount",
          "type": "uint256"
        }
      ],
      "name": "Sell",
      "type": "event"
    },
    {
      "anonymous": false,
      "inputs": [
        {
          "indexed": true,
          "internalType": "address",
          "name": "from",
          "type": "address"
        },
        {
          "indexed": true,
          "internalType": "address",
          "name": "to",
          "type": "address"
        },
        {
          "indexed": false,
          "internalType": "uint256",
          "name": "value",
          "type": "uint256"
        }
      ],
      "name": "Transfer",
      "type": "event"
    },
    {
      "anonymous": false,
      "inputs": [
        {
          "indexed": false,
          "internalType": "uint256",
          "name": "oldPrice",
          "type": "uint256"
        },
        {
          "indexed": false,
          "internalType": "uint256",
          "name": "newPrice",
          "type": "uint256"
        }
      ],
      "name": "UpdatePrice",
      "type": "event"
    },
    {
      "inputs": [
        {
          "internalType": "enum IZSCore.NodeType",
          "name": "nodeType",
          "type": "uint8"
        },
        {
          "internalType": "address",
          "name": "addr",
          "type": "address"
        }
      ],
      "name": "addNode",
      "outputs": [],
      "stateMutability": "nonpayable",
      "type": "function"
    },
    {
      "inputs": [
        {
          "internalType": "address",
          "name": "owner",
          "type": "address"
        },
        {
          "internalType": "address",
          "name": "spender",
          "type": "address"
        }
      ],
      "name": "allowance",
      "outputs": [
        {
          "internalType": "uint256",
          "name": "",
          "type": "uint256"
        }
      ],
      "stateMutability": "view",
      "type": "function"
    },
    {
      "inputs": [
        {
          "internalType": "address",
          "name": "spender",
          "type": "address"
        },
        {
          "internalType": "uint256",
          "name": "value",
          "type": "uint256"
        }
      ],
      "name": "approve",
      "outputs": [
        {
          "internalType": "bool",
          "name": "",
          "type": "bool"
        }
      ],
      "stateMutability": "nonpayable",
      "type": "function"
    },
    {
      "inputs": [
        {
          "internalType": "address",
          "name": "account",
          "type": "address"
        }
      ],
      "name": "balanceOf",
      "outputs": [
        {
          "internalType": "uint256",
          "name": "",
          "type": "uint256"
        }
      ],
      "stateMutability": "view",
      "type": "function"
    },
    {
      "inputs": [
        {
          "internalType": "address",
          "name": "",
          "type": "address"
        }
      ],
      "name": "bind",
      "outputs": [
        {
          "internalType": "address",
          "name": "",
          "type": "address"
        }
      ],
      "stateMutability": "view",
      "type": "function"
    },
    {
      "inputs": [
        {
          "internalType": "address",
          "name": "newManager",
          "type": "address"
        }
      ],
      "name": "changeManager",
      "outputs": [],
      "stateMutability": "nonpayable",
      "type": "function"
    },
    {
      "inputs": [
        {
          "internalType": "address",
          "name": "newOwner",
          "type": "address"
        }
      ],
      "name": "changeOwner",
      "outputs": [],
      "stateMutability": "nonpayable",
      "type": "function"
    },
    {
      "inputs": [],
      "name": "decimals",
      "outputs": [
        {
          "internalType": "uint8",
          "name": "",
          "type": "uint8"
        }
      ],
      "stateMutability": "view",
      "type": "function"
    },
    {
      "inputs": [
        {
          "internalType": "enum IZSCore.NodeType",
          "name": "nodeType",
          "type": "uint8"
        },
        {
          "internalType": "uint8",
          "name": "index",
          "type": "uint8"
        }
      ],
      "name": "delNode",
      "outputs": [],
      "stateMutability": "nonpayable",
      "type": "function"
    },
    {
      "inputs": [
        {
          "internalType": "uint8",
          "name": "size",
          "type": "uint8"
        },
        {
          "internalType": "uint32",
          "name": "index",
          "type": "uint32"
        },
        {
          "internalType": "uint32",
          "name": "count",
          "type": "uint32"
        }
      ],
      "name": "distribute",
      "outputs": [],
      "stateMutability": "nonpayable",
      "type": "function"
    },
    {
      "inputs": [],
      "name": "factory",
      "outputs": [
        {
          "internalType": "address",
          "name": "",
          "type": "address"
        }
      ],
      "stateMutability": "view",
      "type": "function"
    },
    {
      "inputs": [],
      "name": "getLpShareAndBurnInfo",
      "outputs": [
        {
          "internalType": "uint256",
          "name": "shareAmount",
          "type": "uint256"
        },
        {
          "internalType": "uint256",
          "name": "burnAmount",
          "type": "uint256"
        },
        {
          "internalType": "uint256",
          "name": "count",
          "type": "uint256"
        }
      ],
      "stateMutability": "view",
      "type": "function"
    },
    {
      "inputs": [
        {
          "internalType": "enum IZSCore.NodeType",
          "name": "thisType",
          "type": "uint8"
        }
      ],
      "name": "getNodeLength",
      "outputs": [
        {
          "internalType": "uint256",
          "name": "",
          "type": "uint256"
        }
      ],
      "stateMutability": "view",
      "type": "function"
    },
    {
      "inputs": [],
      "name": "getPrice",
      "outputs": [
        {
          "internalType": "uint256",
          "name": "zs_USDT_Price",
          "type": "uint256"
        }
      ],
      "stateMutability": "view",
      "type": "function"
    },
    {
      "inputs": [
        {
          "internalType": "address",
          "name": "token",
          "type": "address"
        },
        {
          "internalType": "address",
          "name": "account",
          "type": "address"
        }
      ],
      "name": "getTokenBalance",
      "outputs": [
        {
          "internalType": "uint256",
          "name": "userTokenBalance",
          "type": "uint256"
        }
      ],
      "stateMutability": "view",
      "type": "function"
    },
    {
      "inputs": [],
      "name": "getlpGroupLength",
      "outputs": [
        {
          "internalType": "uint256",
          "name": "",
          "type": "uint256"
        }
      ],
      "stateMutability": "view",
      "type": "function"
    },
    {
      "inputs": [
        {
          "internalType": "uint256",
          "name": "index",
          "type": "uint256"
        }
      ],
      "name": "indexLpUser",
      "outputs": [
        {
          "internalType": "address",
          "name": "",
          "type": "address"
        }
      ],
      "stateMutability": "view",
      "type": "function"
    },
    {
      "inputs": [
        {
          "internalType": "address",
          "name": "newWBNB",
          "type": "address"
        },
        {
          "internalType": "address",
          "name": "newUSDT",
          "type": "address"
        },
        {
          "internalType": "address",
          "name": "newRouter",
          "type": "address"
        },
        {
          "internalType": "address",
          "name": "newFactory",
          "type": "address"
        },
        {
          "internalType": "address",
          "name": "newMarket",
          "type": "address"
        },
        {
          "internalType": "address",
          "name": "newZSSharePool",
          "type": "address"
        },
        {
          "internalType": "address",
          "name": "newZSRelayVault",
          "type": "address"
        }
      ],
      "name": "initialize",
      "outputs": [],
      "stateMutability": "nonpayable",
      "type": "function"
    },
    {
      "inputs": [],
      "name": "initializePairs",
      "outputs": [],
      "stateMutability": "nonpayable",
      "type": "function"
    },
    {
      "inputs": [
        {
          "internalType": "address",
          "name": "",
          "type": "address"
        }
      ],
      "name": "inviteNumber",
      "outputs": [
        {
          "internalType": "uint32",
          "name": "",
          "type": "uint32"
        }
      ],
      "stateMutability": "view",
      "type": "function"
    },
    {
      "inputs": [
        {
          "internalType": "address",
          "name": "",
          "type": "address"
        },
        {
          "internalType": "address",
          "name": "",
          "type": "address"
        }
      ],
      "name": "inviteRecord",
      "outputs": [
        {
          "internalType": "bool",
          "name": "",
          "type": "bool"
        }
      ],
      "stateMutability": "view",
      "type": "function"
    },
    {
      "inputs": [],
      "name": "lastestBurnTimestamp",
      "outputs": [
        {
          "internalType": "uint64",
          "name": "",
          "type": "uint64"
        }
      ],
      "stateMutability": "view",
      "type": "function"
    },
    {
      "inputs": [],
      "name": "lastestEarnTimestamp",
      "outputs": [
        {
          "internalType": "uint64",
          "name": "",
          "type": "uint64"
        }
      ],
      "stateMutability": "view",
      "type": "function"
    },
    {
      "inputs": [],
      "name": "lastestRecordPrice",
      "outputs": [
        {
          "internalType": "uint256",
          "name": "",
          "type": "uint256"
        }
      ],
      "stateMutability": "view",
      "type": "function"
    },
    {
      "inputs": [
        {
          "internalType": "uint32",
          "name": "",
          "type": "uint32"
        },
        {
          "internalType": "uint32",
          "name": "",
          "type": "uint32"
        }
      ],
      "name": "lpShareIfDistribute",
      "outputs": [
        {
          "internalType": "bool",
          "name": "",
          "type": "bool"
        }
      ],
      "stateMutability": "view",
      "type": "function"
    },
    {
      "inputs": [],
      "name": "lpShareZSInLp",
      "outputs": [],
      "stateMutability": "nonpayable",
      "type": "function"
    },
    {
      "inputs": [
        {
          "internalType": "address",
          "name": "receiver",
          "type": "address"
        },
        {
          "internalType": "uint256",
          "name": "amount",
          "type": "uint256"
        }
      ],
      "name": "mint",
      "outputs": [],
      "stateMutability": "nonpayable",
      "type": "function"
    },
    {
      "inputs": [],
      "name": "name",
      "outputs": [
        {
          "internalType": "string",
          "name": "",
          "type": "string"
        }
      ],
      "stateMutability": "view",
      "type": "function"
    },
    {
      "inputs": [
        {
          "internalType": "enum IZSCore.NodeType",
          "name": "",
          "type": "uint8"
        },
        {
          "internalType": "uint256",
          "name": "",
          "type": "uint256"
        }
      ],
      "name": "node",
      "outputs": [
        {
          "internalType": "address",
          "name": "",
          "type": "address"
        }
      ],
      "stateMutability": "view",
      "type": "function"
    },
    {
      "inputs": [],
      "name": "openBuy",
      "outputs": [
        {
          "internalType": "bool",
          "name": "",
          "type": "bool"
        }
      ],
      "stateMutability": "view",
      "type": "function"
    },
    {
      "inputs": [],
      "name": "openRemoveLiquidity",
      "outputs": [
        {
          "internalType": "bool",
          "name": "",
          "type": "bool"
        }
      ],
      "stateMutability": "view",
      "type": "function"
    },
    {
      "inputs": [
        {
          "internalType": "address",
          "name": "",
          "type": "address"
        },
        {
          "internalType": "address",
          "name": "",
          "type": "address"
        }
      ],
      "name": "relationship",
      "outputs": [
        {
          "internalType": "bool",
          "name": "",
          "type": "bool"
        }
      ],
      "stateMutability": "view",
      "type": "function"
    },
    {
      "inputs": [],
      "name": "router",
      "outputs": [
        {
          "internalType": "address",
          "name": "",
          "type": "address"
        }
      ],
      "stateMutability": "view",
      "type": "function"
    },
    {
      "inputs": [
        {
          "internalType": "bool",
          "name": "state",
          "type": "bool"
        }
      ],
      "name": "setIfRemoveLiquidity",
      "outputs": [],
      "stateMutability": "nonpayable",
      "type": "function"
    },
    {
      "inputs": [
        {
          "internalType": "bool",
          "name": "state",
          "type": "bool"
        }
      ],
      "name": "setOpenBuy",
      "outputs": [],
      "stateMutability": "nonpayable",
      "type": "function"
    },
    {
      "inputs": [
        {
          "internalType": "address",
          "name": "addr",
          "type": "address"
        },
        {
          "internalType": "bool",
          "name": "state",
          "type": "bool"
        }
      ],
      "name": "setValidContract",
      "outputs": [],
      "stateMutability": "nonpayable",
      "type": "function"
    },
    {
      "inputs": [
        {
          "internalType": "address",
          "name": "token",
          "type": "address"
        }
      ],
      "name": "skim",
      "outputs": [],
      "stateMutability": "nonpayable",
      "type": "function"
    },
    {
      "inputs": [],
      "name": "symbol",
      "outputs": [
        {
          "internalType": "string",
          "name": "",
          "type": "string"
        }
      ],
      "stateMutability": "view",
      "type": "function"
    },
    {
      "inputs": [],
      "name": "totalLp",
      "outputs": [
        {
          "internalType": "uint256",
          "name": "",
          "type": "uint256"
        }
      ],
      "stateMutability": "view",
      "type": "function"
    },
    {
      "inputs": [],
      "name": "totalSupply",
      "outputs": [
        {
          "internalType": "uint256",
          "name": "",
          "type": "uint256"
        }
      ],
      "stateMutability": "view",
      "type": "function"
    },
    {
      "inputs": [
        {
          "internalType": "address",
          "name": "to",
          "type": "address"
        },
        {
          "internalType": "uint256",
          "name": "value",
          "type": "uint256"
        }
      ],
      "name": "transfer",
      "outputs": [
        {
          "internalType": "bool",
          "name": "",
          "type": "bool"
        }
      ],
      "stateMutability": "nonpayable",
      "type": "function"
    },
    {
      "inputs": [
        {
          "internalType": "address",
          "name": "from",
          "type": "address"
        },
        {
          "internalType": "address",
          "name": "to",
          "type": "address"
        },
        {
          "internalType": "uint256",
          "name": "value",
          "type": "uint256"
        }
      ],
      "name": "transferFrom",
      "outputs": [
        {
          "internalType": "bool",
          "name": "",
          "type": "bool"
        }
      ],
      "stateMutability": "nonpayable",
      "type": "function"
    },
    {
      "inputs": [],
      "name": "usdt_wbnb_pair",
      "outputs": [
        {
          "internalType": "address",
          "name": "",
          "type": "address"
        }
      ],
      "stateMutability": "view",
      "type": "function"
    },
    {
      "inputs": [
        {
          "internalType": "address",
          "name": "",
          "type": "address"
        }
      ],
      "name": "userLpInfo",
      "outputs": [
        {
          "internalType": "uint256",
          "name": "",
          "type": "uint256"
        }
      ],
      "stateMutability": "view",
      "type": "function"
    },
    {
      "inputs": [],
      "name": "zs_wbnb_pair",
      "outputs": [
        {
          "internalType": "address",
          "name": "",
          "type": "address"
        }
      ],
      "stateMutability": "view",
      "type": "function"
    },
    {
      "stateMutability": "payable",
      "type": "receive"
    }
  ],
  "bytecode": "0x60806040523480156200001157600080fd5b5060405162005ef838038062005ef8833981810160405281019062000037919062000275565b6040518060400160405280600c81526020017fe5b881e5ae89e992bbe79fb300000000000000000000000000000000000000008152506040518060400160405280600c81526020017fe5b881e5ae89e992bbe79fb300000000000000000000000000000000000000008152508160039081620000b4919062000536565b508060049081620000c6919062000536565b505050600160058190555081600660006101000a81548173ffffffffffffffffffffffffffffffffffffffff021916908373ffffffffffffffffffffffffffffffffffffffff16021790555080600760006101000a81548173ffffffffffffffffffffffffffffffffffffffff021916908373ffffffffffffffffffffffffffffffffffffffff1602179055506001601460008073ffffffffffffffffffffffffffffffffffffffff1673ffffffffffffffffffffffffffffffffffffffff16815260200190815260200160002060006101000a81548160ff0219169083151502179055506001601460003073ffffffffffffffffffffffffffffffffffffffff1673ffffffffffffffffffffffffffffffffffffffff16815260200190815260200160002060006101000a81548160ff02191690831515021790555050506200061d565b600080fd5b600073ffffffffffffffffffffffffffffffffffffffff82169050919050565b60006200023d8262000210565b9050919050565b6200024f8162000230565b81146200025b57600080fd5b50565b6000815190506200026f8162000244565b92915050565b600080604083850312156200028f576200028e6200020b565b5b60006200029f858286016200025e565b9250506020620002b2858286016200025e565b9150509250929050565b600081519050919050565b7f4e487b7100000000000000000000000000000000000000000000000000000000600052604160045260246000fd5b7f4e487b7100000000000000000000000000000000000000000000000000000000600052602260045260246000fd5b600060028204905060018216806200033e57607f821691505b602082108103620003545762000353620002f6565b5b50919050565b60008190508160005260206000209050919050565b60006020601f8301049050919050565b600082821b905092915050565b600060088302620003be7fffffffffffffffffffffffffffffffffffffffffffffffffffffffffffffffff826200037f565b620003ca86836200037f565b95508019841693508086168417925050509392505050565b6000819050919050565b6000819050919050565b600062000417620004116200040b84620003e2565b620003ec565b620003e2565b9050919050565b6000819050919050565b6200043383620003f6565b6200044b62000442826200041e565b8484546200038c565b825550505050565b600090565b6200046262000453565b6200046f81848462000428565b505050565b5b8181101562000497576200048b60008262000458565b60018101905062000475565b5050565b601f821115620004e657620004b0816200035a565b620004bb846200036f565b81016020851015620004cb578190505b620004e3620004da856200036f565b83018262000474565b50505b505050565b600082821c905092915050565b60006200050b60001984600802620004eb565b1980831691505092915050565b6000620005268383620004f8565b9150826002028217905092915050565b6200054182620002bc565b67ffffffffffffffff8111156200055d576200055c620002c7565b5b62000569825462000325565b620005768282856200049b565b600060209050601f831160018114620005ae576000841562000599578287015190505b620005a5858262000518565b86555062000615565b601f198416620005be866200035a565b60005b82811015620005e857848901518255600182019150602085019450602081019050620005c1565b8683101562000608578489015162000604601f891682620004f8565b8355505b6001600288020188555050505b505050505050565b6158cb806200062d6000396000f3fe6080604052600436106102765760003560e01c806370a082311161014f578063ad0ff173116100c1578063d4a679301161007a578063d4a6793014610a01578063db9609b014610a2c578063dd62ed3e14610a59578063ec01f8ff14610a96578063ef1c33d914610abf578063f887ea4014610ad65761029b565b8063ad0ff173146108df578063bc0c639f14610908578063bc25cf7714610945578063c45a01551461096e578063c489744b14610999578063c942d4de146109d65761029b565b806395d89b411161011357806395d89b41146107d157806398d5fdca146107fc578063a3fbbaae14610827578063a6f9dae114610850578063a9059cbb14610879578063abe1f632146108b65761029b565b806370a08231146106b257806374810021146106ef57806381bac14f1461072c578063837855d31461076957806383ae70ce146107a65761029b565b806335876476116101e85780634dbc6f14116101ac5780634dbc6f14146105c8578063513b57c4146105df57806352a8273614610608578063561379381461063157806364515e5c1461065c5780636c1f150b146106875761029b565b806335876476146104bf5780633b1e23a2146104e85780634030ea8a1461052557806340c10f191461056257806341c7454f1461058b5761029b565b806318160ddd1161023a57806318160ddd1461039b5780631952a553146103c657806323b872dd14610403578063242c135d1461044057806329e9a5241461046b578063313ce567146104945761029b565b80630145aecb146102a057806306fdde03146102dd578063095ea7b31461030857806313dc1a45146103455780631583ef5f146103705761029b565b3661029b576000151561028833610b01565b1515036102995761029834610b1a565b5b005b600080fd5b3480156102ac57600080fd5b506102c760048036038101906102c2919061463d565b611410565b6040516102d49190614689565b60405180910390f35b3480156102e957600080fd5b506102f2611433565b6040516102ff9190614734565b60405180910390f35b34801561031457600080fd5b5061032f600480360381019061032a919061478c565b6114c5565b60405161033c91906147e7565b60405180910390f35b34801561035157600080fd5b5061035a6114e8565b60405161036791906147e7565b60405180910390f35b34801561037c57600080fd5b506103856114fb565b6040516103929190614825565b60405180910390f35b3480156103a757600080fd5b506103b0611515565b6040516103bd919061484f565b60405180910390f35b3480156103d257600080fd5b506103ed60048036038101906103e8919061486a565b61151f565b6040516103fa91906147e7565b60405180910390f35b34801561040f57600080fd5b5061042a600480360381019061042591906148aa565b61154e565b60405161043791906147e7565b60405180910390f35b34801561044c57600080fd5b5061045561157d565b604051610462919061484f565b60405180910390f35b34801561047757600080fd5b50610492600480360381019061048d9190614929565b611583565b005b3480156104a057600080fd5b506104a96115a8565b6040516104b69190614972565b60405180910390f35b3480156104cb57600080fd5b506104e660048036038101906104e1919061498d565b6115b1565b005b3480156104f457600080fd5b5061050f600480360381019061050a9190614a5b565b6118f7565b60405161051c91906147e7565b60405180910390f35b34801561053157600080fd5b5061054c6004803603810190610547919061463d565b611926565b604051610559919061484f565b60405180910390f35b34801561056e57600080fd5b506105896004803603810190610584919061478c565b61193e565b005b34801561059757600080fd5b506105b260048036038101906105ad9190614ac0565b611984565b6040516105bf919061484f565b60405180910390f35b3480156105d457600080fd5b506105dd6119c8565b005b3480156105eb57600080fd5b5061060660048036038101906106019190614aed565b611b46565b005b34801561061457600080fd5b5061062f600480360381019061062a9190614b59565b611bea565b005b34801561063d57600080fd5b506106466120a6565b604051610653919061484f565b60405180910390f35b34801561066857600080fd5b506106716120b3565b60405161067e919061484f565b60405180910390f35b34801561069357600080fd5b5061069c6120b9565b6040516106a99190614bbb565b60405180910390f35b3480156106be57600080fd5b506106d960048036038101906106d4919061463d565b6120df565b6040516106e6919061484f565b60405180910390f35b3480156106fb57600080fd5b5061071660048036038101906107119190614bd6565b612127565b6040516107239190614bbb565b60405180910390f35b34801561073857600080fd5b50610753600480360381019061074e919061463d565b61216f565b6040516107609190614bbb565b60405180910390f35b34801561077557600080fd5b50610790600480360381019061078b9190614c03565b6121a2565b60405161079d9190614bbb565b60405180910390f35b3480156107b257600080fd5b506107bb6121f0565b6040516107c89190614bbb565b60405180910390f35b3480156107dd57600080fd5b506107e6612216565b6040516107f39190614734565b60405180910390f35b34801561080857600080fd5b506108116122a8565b60405161081e919061484f565b60405180910390f35b34801561083357600080fd5b5061084e6004803603810190610849919061463d565b61252e565b005b34801561085c57600080fd5b506108776004803603810190610872919061463d565b61257a565b005b34801561088557600080fd5b506108a0600480360381019061089b919061478c565b6125c6565b6040516108ad91906147e7565b60405180910390f35b3480156108c257600080fd5b506108dd60048036038101906108d89190614c43565b6125e9565b005b3480156108eb57600080fd5b5061090660048036038101906109019190614c83565b61266e565b005b34801561091457600080fd5b5061092f600480360381019061092a919061486a565b6126d1565b60405161093c91906147e7565b60405180910390f35b34801561095157600080fd5b5061096c6004803603810190610967919061463d565b612700565b005b34801561097a57600080fd5b5061098361282b565b6040516109909190614bbb565b60405180910390f35b3480156109a557600080fd5b506109c060048036038101906109bb919061486a565b612851565b6040516109cd919061484f565b60405180910390f35b3480156109e257600080fd5b506109eb612928565b6040516109f89190614825565b60405180910390f35b348015610a0d57600080fd5b50610a16612942565b604051610a2391906147e7565b60405180910390f35b348015610a3857600080fd5b50610a41612955565b604051610a5093929190614cc3565b60405180910390f35b348015610a6557600080fd5b50610a806004803603810190610a7b919061486a565b612b86565b604051610a8d919061484f565b60405180910390f35b348015610aa257600080fd5b50610abd6004803603810190610ab89190614929565b612c0d565b005b348015610acb57600080fd5b50610ad4612c32565b005b348015610ae257600080fd5b50610aeb612d77565b604051610af89190614bbb565b60405180910390f35b600080823b905060008163ffffffff1611915050919050565b6000610b27600030612851565b9050610b6d600860009054906101000a900473ffffffffffffffffffffffffffffffffffffffff166014606485610b5e9190614d58565b610b689190614d89565b612d9d565b6000604051806102800160405280600560ff168152602001600260ff168152602001600260ff168152602001600160ff168152602001600160ff168152602001600160ff168152602001600160ff168152602001600160ff168152602001600160ff168152602001600160ff168152602001600160ff168152602001600160ff168152602001600160ff168152602001600160ff168152602001600160ff168152602001600160ff168152602001600160ff168152602001600160ff168152602001600160ff168152602001600160ff1681525090506000339050600160166000601960003373ffffffffffffffffffffffffffffffffffffffff1673ffffffffffffffffffffffffffffffffffffffff16815260200190815260200160002060009054906101000a900473ffffffffffffffffffffffffffffffffffffffff1673ffffffffffffffffffffffffffffffffffffffff1673ffffffffffffffffffffffffffffffffffffffff16815260200190815260200160002060009054906101000a900463ffffffff1663ffffffff1610610ebf5760005b60166000601960003373ffffffffffffffffffffffffffffffffffffffff1673ffffffffffffffffffffffffffffffffffffffff16815260200190815260200160002060009054906101000a900473ffffffffffffffffffffffffffffffffffffffff1673ffffffffffffffffffffffffffffffffffffffff1673ffffffffffffffffffffffffffffffffffffffff16815260200190815260200160002060009054906101000a900463ffffffff1663ffffffff16811015610ebd576000601960008473ffffffffffffffffffffffffffffffffffffffff1673ffffffffffffffffffffffffffffffffffffffff16815260200190815260200160002060009054906101000a900473ffffffffffffffffffffffffffffffffffffffff169050600073ffffffffffffffffffffffffffffffffffffffff168173ffffffffffffffffffffffffffffffffffffffff1603610e615750610ebd565b60006064858460148110610e7857610e77614dcb565b5b602002015160ff1688610e8b9190614d89565b610e959190614d58565b90506000811115610eab57610eaa8282612d9d565b5b81935050508080600101915050610d07565b505b6000610ecb6001611984565b90506000610ed96000611984565b9050600082111561105a576000826003606489610ef69190614d58565b610f009190614d89565b610f0a9190614d58565b905060005b8381101561105757600073ffffffffffffffffffffffffffffffffffffffff1660156000600180811115610f4657610f45614dfa565b5b6001811115610f5857610f57614dfa565b5b81526020019081526020016000208281548110610f7857610f77614dcb565b5b9060005260206000200160009054906101000a900473ffffffffffffffffffffffffffffffffffffffff1673ffffffffffffffffffffffffffffffffffffffff1614158015610fc75750600082115b1561104a5761104960156000600180811115610fe657610fe5614dfa565b5b6001811115610ff857610ff7614dfa565b5b8152602001908152602001600020828154811061101857611017614dcb565b5b9060005260206000200160009054906101000a900473ffffffffffffffffffffffffffffffffffffffff1683612d9d565b5b8080600101915050610f0f565b50505b60008111156111d95760008160016064896110759190614d58565b61107f9190614d89565b6110899190614d58565b905060005b828110156111d657600073ffffffffffffffffffffffffffffffffffffffff16601560008060018111156110c5576110c4614dfa565b5b60018111156110d7576110d6614dfa565b5b815260200190815260200160002082815481106110f7576110f6614dcb565b5b9060005260206000200160009054906101000a900473ffffffffffffffffffffffffffffffffffffffff1673ffffffffffffffffffffffffffffffffffffffff16141580156111465750600082115b156111c9576111c86015600080600181111561116557611164614dfa565b5b600181111561117757611176614dfa565b5b8152602001908152602001600020828154811061119757611196614dcb565b5b9060005260206000200160009054906101000a900473ffffffffffffffffffffffffffffffffffffffff1683612d9d565b5b808060010191505061108e565b50505b6000600a60009054906101000a900473ffffffffffffffffffffffffffffffffffffffff1673ffffffffffffffffffffffffffffffffffffffff166382c7f627603260648a6112289190614d58565b6112329190614d89565b600860009054906101000a900473ffffffffffffffffffffffffffffffffffffffff166040518363ffffffff1660e01b81526004016112719190614bbb565b60206040518083038185885af115801561128f573d6000803e3d6000fd5b50505050506040513d601f19601f820116820180604052508101906112b49190614e3e565b905080601a60003373ffffffffffffffffffffffffffffffffffffffff1673ffffffffffffffffffffffffffffffffffffffff16815260200190815260200160002060008282546113059190614e6b565b92505081905550806013600082825461131e9190614e6b565b92505081905550601c339080600181540180825580915050600190039060005260206000200160009091909190916101000a81548173ffffffffffffffffffffffffffffffffffffffff021916908373ffffffffffffffffffffffffffffffffffffffff1602179055507f1ac1d796426d122cc937df3056b76b5dfff699fe53fc92a80b71da309ca5a1103388426040516113bb93929190614e9f565b60405180910390a160006113d0600030612851565b90508688826113df9190614e6b565b11156114065761140533888a846113f69190614e6b565b6114009190614ed6565b612d9d565b5b5050505050505050565b60166020528060005260406000206000915054906101000a900463ffffffff1681565b60606003805461144290614f39565b80601f016020809104026020016040519081016040528092919081815260200182805461146e90614f39565b80156114bb5780601f10611490576101008083540402835291602001916114bb565b820191906000526020600020905b81548152906001019060200180831161149e57829003601f168201915b5050505050905090565b6000806114d0612e18565b90506114dd818585612e20565b600191505092915050565b601160099054906101000a900460ff1681565b601160009054906101000a900467ffffffffffffffff1681565b6000600254905090565b60176020528160005260406000206020528060005260406000206000915091509054906101000a900460ff1681565b600080611559612e18565b9050611566858285612e32565b611571858585612ec7565b60019150509392505050565b60135481565b61158b613b17565b80601160086101000a81548160ff02191690831515021790555050565b60006012905090565b6115b9613b17565b86600b60006101000a81548173ffffffffffffffffffffffffffffffffffffffff021916908373ffffffffffffffffffffffffffffffffffffffff16021790555085600c60006101000a81548173ffffffffffffffffffffffffffffffffffffffff021916908373ffffffffffffffffffffffffffffffffffffffff16021790555084600f60006101000a81548173ffffffffffffffffffffffffffffffffffffffff021916908373ffffffffffffffffffffffffffffffffffffffff16021790555083601060006101000a81548173ffffffffffffffffffffffffffffffffffffffff021916908373ffffffffffffffffffffffffffffffffffffffff16021790555082600860006101000a81548173ffffffffffffffffffffffffffffffffffffffff021916908373ffffffffffffffffffffffffffffffffffffffff16021790555081600960006101000a81548173ffffffffffffffffffffffffffffffffffffffff021916908373ffffffffffffffffffffffffffffffffffffffff16021790555080600a60006101000a81548173ffffffffffffffffffffffffffffffffffffffff021916908373ffffffffffffffffffffffffffffffffffffffff160217905550600160146000600f60009054906101000a900473ffffffffffffffffffffffffffffffffffffffff1673ffffffffffffffffffffffffffffffffffffffff1673ffffffffffffffffffffffffffffffffffffffff16815260200190815260200160002060006101000a81548160ff021916908315150217905550600160146000600a60009054906101000a900473ffffffffffffffffffffffffffffffffffffffff1673ffffffffffffffffffffffffffffffffffffffff1673ffffffffffffffffffffffffffffffffffffffff16815260200190815260200160002060006101000a81548160ff021916908315150217905550600160146000600960009054906101000a900473ffffffffffffffffffffffffffffffffffffffff1673ffffffffffffffffffffffffffffffffffffffff1673ffffffffffffffffffffffffffffffffffffffff16815260200190815260200160002060006101000a81548160ff02191690831515021790555050505050505050565b601b6020528160005260406000206020528060005260406000206000915091509054906101000a900460ff1681565b601a6020528060005260406000206000915090505481565b611946613b17565b6000611950611515565b8261195b9190614e6b565b90506ab5facfe5b81c365c00000081111561197557600080fd5b61197f8383613b73565b505050565b60006015600083600181111561199d5761199c614dfa565b5b60018111156119af576119ae614dfa565b5b8152602001908152602001600020805490509050919050565b6119d0613b17565b6119fc30600b60009054906101000a900473ffffffffffffffffffffffffffffffffffffffff16613bf5565b600d60006101000a81548173ffffffffffffffffffffffffffffffffffffffff021916908373ffffffffffffffffffffffffffffffffffffffff160217905550600160146000600d60009054906101000a900473ffffffffffffffffffffffffffffffffffffffff1673ffffffffffffffffffffffffffffffffffffffff1673ffffffffffffffffffffffffffffffffffffffff16815260200190815260200160002060006101000a81548160ff021916908315150217905550611b04600c60009054906101000a900473ffffffffffffffffffffffffffffffffffffffff16600b60009054906101000a900473ffffffffffffffffffffffffffffffffffffffff16613bf5565b600e60006101000a81548173ffffffffffffffffffffffffffffffffffffffff021916908373ffffffffffffffffffffffffffffffffffffffff160217905550565b611b4e613b17565b60156000836001811115611b6557611b64614dfa565b5b6001811115611b7757611b76614dfa565b5b8152602001908152602001600020819080600181540180825580915050600190039060005260206000200160009091909190916101000a81548173ffffffffffffffffffffffffffffffffffffffff021916908373ffffffffffffffffffffffffffffffffffffffff1602179055505050565b611bf2613cd6565b6000806000611bff6120a6565b90506000600960009054906101000a900473ffffffffffffffffffffffffffffffffffffffff1673ffffffffffffffffffffffffffffffffffffffff16633dc86e526040518163ffffffff1660e01b8152600401602060405180830381865afa158015611c70573d6000803e3d6000fd5b505050506040513d601f19601f82011682018060405250810190611c949190614e3e565b9050600082118015611cba57508660ff1682611cb09190614d58565b8663ffffffff1611155b611cf9576040517f08c379a0000000000000000000000000000000000000000000000000000000008152600401611cf090614fb6565b60405180910390fd5b60001515601b60008763ffffffff1663ffffffff16815260200190815260200160002060008863ffffffff1663ffffffff16815260200190815260200160002060009054906101000a900460ff16151514611d89576040517f08c379a0000000000000000000000000000000000000000000000000000000008152600401611d8090615022565b60405180910390fd5b8660ff168211611d9b57819350611df5565b60008760ff1683611dac9190615042565b03611dbc578660ff169350611dce565b8660ff1682611dcb9190615042565b93505b60008663ffffffff1614611df4578660ff1686611deb9190615073565b63ffffffff1692505b5b60008467ffffffffffffffff811115611e1157611e106150b0565b5b604051908082528060200260200182016040528015611e3f5781602001602082028036833780820191505090505b50905060008567ffffffffffffffff811115611e5e57611e5d6150b0565b5b604051908082528060200260200182016040528015611e8c5781602001602082028036833780820191505090505b50905060005b86811015611fb2576000601c8781548110611eb057611eaf614dcb565b5b9060005260206000200160009054906101000a900473ffffffffffffffffffffffffffffffffffffffff1690506000611f2b601a60008473ffffffffffffffffffffffffffffffffffffffff1673ffffffffffffffffffffffffffffffffffffffff1681526020019081526020016000205487601354613d32565b905081858481518110611f4157611f40614dcb565b5b602002602001019073ffffffffffffffffffffffffffffffffffffffff16908173ffffffffffffffffffffffffffffffffffffffff168152505080848481518110611f8f57611f8e614dcb565b5b602002602001018181525050878060010198505050508080600101915050611e92565b50600960009054906101000a900473ffffffffffffffffffffffffffffffffffffffff1673ffffffffffffffffffffffffffffffffffffffff16632a6de18f888a84866040518563ffffffff1660e01b8152600401612014949392919061525b565b600060405180830381600087803b15801561202e57600080fd5b505af1158015612042573d6000803e3d6000fd5b505050506001601b60008963ffffffff1663ffffffff16815260200190815260200160002060008a63ffffffff1663ffffffff16815260200190815260200160002060006101000a81548160ff021916908315150217905550505050505050505050565b6000601c80549050905090565b60125481565b600d60009054906101000a900473ffffffffffffffffffffffffffffffffffffffff1681565b60008060008373ffffffffffffffffffffffffffffffffffffffff1673ffffffffffffffffffffffffffffffffffffffff168152602001908152602001600020549050919050565b6000601c828154811061213d5761213c614dcb565b5b9060005260206000200160009054906101000a900473ffffffffffffffffffffffffffffffffffffffff169050919050565b60196020528060005260406000206000915054906101000a900473ffffffffffffffffffffffffffffffffffffffff1681565b601560205281600052604060002081815481106121be57600080fd5b906000526020600020016000915091509054906101000a900473ffffffffffffffffffffffffffffffffffffffff1681565b600e60009054906101000a900473ffffffffffffffffffffffffffffffffffffffff1681565b60606004805461222590614f39565b80601f016020809104026020016040519081016040528092919081815260200182805461225190614f39565b801561229e5780601f106122735761010080835404028352916020019161229e565b820191906000526020600020905b81548152906001019060200180831161228157829003601f168201915b5050505050905090565b6000806122d730600d60009054906101000a900473ffffffffffffffffffffffffffffffffffffffff16612851565b90506000612329600b60009054906101000a900473ffffffffffffffffffffffffffffffffffffffff16600d60009054906101000a900473ffffffffffffffffffffffffffffffffffffffff16612851565b9050600061237b600c60009054906101000a900473ffffffffffffffffffffffffffffffffffffffff16600e60009054906101000a900473ffffffffffffffffffffffffffffffffffffffff16612851565b905060006123cd600b60009054906101000a900473ffffffffffffffffffffffffffffffffffffffff16600e60009054906101000a900473ffffffffffffffffffffffffffffffffffffffff16612851565b90506000600c60009054906101000a900473ffffffffffffffffffffffffffffffffffffffff1673ffffffffffffffffffffffffffffffffffffffff1663313ce5676040518163ffffffff1660e01b8152600401602060405180830381865afa15801561243e573d6000803e3d6000fd5b505050506040513d601f19601f8201168201806040525081019061246291906152c3565b90506000808311156124ea5760128260ff160361249b57826305f5e1008561248a9190614d89565b6124949190614d58565b90506124e9565b60128260ff1610156124e857826305f5e1008360126124ba91906152f0565b600a6124c69190615458565b866124d19190614d89565b6124db9190614d89565b6124e59190614d58565b90505b5b5b6000851180156124fa5750600081115b80156125065750600086115b15612525578581866125189190614d89565b6125229190614d58565b96505b50505050505090565b612536613b17565b80600760006101000a81548173ffffffffffffffffffffffffffffffffffffffff021916908373ffffffffffffffffffffffffffffffffffffffff16021790555050565b612582613b17565b80600660006101000a81548173ffffffffffffffffffffffffffffffffffffffff021916908373ffffffffffffffffffffffffffffffffffffffff16021790555050565b6000806125d1612e18565b90506125de818585612ec7565b600191505092915050565b6125f1613b17565b6015600083600181111561260857612607614dfa565b5b600181111561261a57612619614dfa565b5b81526020019081526020016000208160ff168154811061263d5761263c614dcb565b5b9060005260206000200160006101000a81549073ffffffffffffffffffffffffffffffffffffffff02191690555050565b612676613b17565b80601460008473ffffffffffffffffffffffffffffffffffffffff1673ffffffffffffffffffffffffffffffffffffffff16815260200190815260200160002060006101000a81548160ff0219169083151502179055505050565b60186020528160005260406000206020528060005260406000206000915091509054906101000a900460ff1681565b612708613cd6565b60006127148230612851565b9050600081111561282757600073ffffffffffffffffffffffffffffffffffffffff168273ffffffffffffffffffffffffffffffffffffffff16036127845761277f600a60009054906101000a900473ffffffffffffffffffffffffffffffffffffffff1682612d9d565b612826565b8173ffffffffffffffffffffffffffffffffffffffff1663a9059cbb600a60009054906101000a900473ffffffffffffffffffffffffffffffffffffffff16836040518363ffffffff1660e01b81526004016127e19291906154a3565b6020604051808303816000875af1158015612800573d6000803e3d6000fd5b505050506040513d601f19601f8201168201806040525081019061282491906154e1565b505b5b5050565b601060009054906101000a900473ffffffffffffffffffffffffffffffffffffffff1681565b60008073ffffffffffffffffffffffffffffffffffffffff168373ffffffffffffffffffffffffffffffffffffffff16036128a5578173ffffffffffffffffffffffffffffffffffffffff16319050612922565b8273ffffffffffffffffffffffffffffffffffffffff166370a08231836040518263ffffffff1660e01b81526004016128de9190614bbb565b602060405180830381865afa1580156128fb573d6000803e3d6000fd5b505050506040513d601f19601f8201168201806040525081019061291f9190614e3e565b90505b92915050565b601060149054906101000a900467ffffffffffffffff1681565b601160089054906101000a900460ff1681565b60008060008061298730600d60009054906101000a900473ffffffffffffffffffffffffffffffffffffffff16612851565b90506000670de0b6b3a76400008210612b7f5760006129a46120a6565b90506000811180156129b857506103e88111155b156129c65760059150612a1a565b6103e8811180156129d95750610bb88111155b156129e757600a9150612a19565b610bb8811180156129fa57506113888111155b15612a0857600f9150612a18565b611388811115612a1757601491505b5b5b5b6000601160009054906101000a900467ffffffffffffffff1667ffffffffffffffff1614158015612a79575062015180601160009054906101000a900467ffffffffffffffff16612a6b919061550e565b67ffffffffffffffff164210155b8015612a88575060008260ff16115b15612b7d5762015180601160009054906101000a900467ffffffffffffffff1667ffffffffffffffff1642612abd9190614ed6565b612ac79190614d58565b9350838260ff166103e885612adc9190614d58565b612ae69190614d89565b612af09190614d89565b955060126103e884612b029190614d58565b612b0c9190614d89565b945082670de0b6b3a76400008688612b249190614e6b565b612b2e9190614e6b565b10612b7c578486612b3f9190614e6b565b8387612b4b9190614d89565b612b559190614d58565b95508486612b639190614e6b565b8386612b6f9190614d89565b612b799190614d58565b94505b5b505b5050909192565b6000600160008473ffffffffffffffffffffffffffffffffffffffff1673ffffffffffffffffffffffffffffffffffffffff16815260200190815260200160002060008373ffffffffffffffffffffffffffffffffffffffff1673ffffffffffffffffffffffffffffffffffffffff16815260200190815260200160002054905092915050565b612c15613b17565b80601160096101000a81548160ff02191690831515021790555050565b612c3a613cd6565b6000806000612c47612955565b50915091506000821115612ca95760019250612ca8600d60009054906101000a900473ffffffffffffffffffffffffffffffffffffffff16600960009054906101000a900473ffffffffffffffffffffffffffffffffffffffff1684613d75565b5b6000811115612ce55760029250612ce4600d60009054906101000a900473ffffffffffffffffffffffffffffffffffffffff16600083613d75565b5b60008311612cf257600080fd5b612cfa613f9a565b42601160006101000a81548167ffffffffffffffff021916908367ffffffffffffffff1602179055507fc61e013a9a4dffe642933e7762c7b54c5f03a54353c9f01dbc2476d7340de4a482601160009054906101000a900467ffffffffffffffff16604051612d6a92919061554a565b60405180910390a1505050565b600f60009054906101000a900473ffffffffffffffffffffffffffffffffffffffff1681565b60008273ffffffffffffffffffffffffffffffffffffffff1682604051612dc3906155a4565b60006040518083038185875af1925050503d8060008114612e00576040519150601f19603f3d011682016040523d82523d6000602084013e612e05565b606091505b5050905080612e1357600080fd5b505050565b600033905090565b612e2d838383600161401e565b505050565b6000612e3e8484612b86565b90507fffffffffffffffffffffffffffffffffffffffffffffffffffffffffffffffff811015612ec15781811015612eb1578281836040517ffb8f41b2000000000000000000000000000000000000000000000000000000008152600401612ea893929190614e9f565b60405180910390fd5b612ec08484848403600061401e565b5b50505050565b6000612ed284610b01565b90506000612edf84610b01565b90506000828015612f40575060001515601460008873ffffffffffffffffffffffffffffffffffffffff1673ffffffffffffffffffffffffffffffffffffffff16815260200190815260200160002060009054906101000a900460ff161515145b15612f80576040517f08c379a0000000000000000000000000000000000000000000000000000000008152600401612f7790615605565b60405180910390fd5b818015612fdd575060001515601460008773ffffffffffffffffffffffffffffffffffffffff1673ffffffffffffffffffffffffffffffffffffffff16815260200190815260200160002060009054906101000a900460ff161515145b1561301d576040517f08c379a000000000000000000000000000000000000000000000000000000000815260040161301490615671565b60405180910390fd5b60001515601160089054906101000a900460ff161515148015613044575060001515821515145b801561309d5750600d60009054906101000a900473ffffffffffffffffffffffffffffffffffffffff1673ffffffffffffffffffffffffffffffffffffffff168673ffffffffffffffffffffffffffffffffffffffff16145b156130dd576040517f08c379a00000000000000000000000000000000000000000000000000000000081526004016130d4906156dd565b60405180910390fd5b60001515601160099054906101000a900460ff16151514801561314d5750600d60009054906101000a900473ffffffffffffffffffffffffffffffffffffffff1673ffffffffffffffffffffffffffffffffffffffff168673ffffffffffffffffffffffffffffffffffffffff16145b80156131a65750600f60009054906101000a900473ffffffffffffffffffffffffffffffffffffffff1673ffffffffffffffffffffffffffffffffffffffff168573ffffffffffffffffffffffffffffffffffffffff16145b156131e6576040517f08c379a00000000000000000000000000000000000000000000000000000000081526004016131dd90615749565b60405180910390fd5b6000601254905060006131f76122a8565b9050600082148061321f5750600a6007836132129190614d89565b61321c9190614d58565b81115b15613230578060128190555061328f565b600d60009054906101000a900473ffffffffffffffffffffffffffffffffffffffff1673ffffffffffffffffffffffffffffffffffffffff168873ffffffffffffffffffffffffffffffffffffffff161461328e5761328d6141f5565b5b5b600d60009054906101000a900473ffffffffffffffffffffffffffffffffffffffff1673ffffffffffffffffffffffffffffffffffffffff168873ffffffffffffffffffffffffffffffffffffffff16146132ed576132ec614356565b5b600015158515150361341857670de0b6b3a764000061330b896120df565b101561334c576040517f08c379a0000000000000000000000000000000000000000000000000000000008152600401613343906157b5565b60405180910390fd5b600d60009054906101000a900473ffffffffffffffffffffffffffffffffffffffff1673ffffffffffffffffffffffffffffffffffffffff168773ffffffffffffffffffffffffffffffffffffffff160361341757600a866133ae9190614d58565b92506133dd88600860009054906101000a900473ffffffffffffffffffffffffffffffffffffffff1685613d75565b7f5e5e995ce3133561afceaa51a9a154d5db228cd7525d34df5185582c18d3df09888460405161340e9291906154a3565b60405180910390a15b5b61342e888885896134299190614ed6565b613d75565b60001515601760008a73ffffffffffffffffffffffffffffffffffffffff1673ffffffffffffffffffffffffffffffffffffffff16815260200190815260200160002060008973ffffffffffffffffffffffffffffffffffffffff1673ffffffffffffffffffffffffffffffffffffffff16815260200190815260200160002060009054906101000a900460ff1615151480156134cf575060001515851515145b80156134df575060001515841515145b1561358a57670de0b6b3a76400008610613589576001601760008a73ffffffffffffffffffffffffffffffffffffffff1673ffffffffffffffffffffffffffffffffffffffff16815260200190815260200160002060008973ffffffffffffffffffffffffffffffffffffffff1673ffffffffffffffffffffffffffffffffffffffff16815260200190815260200160002060006101000a81548160ff0219169083151502179055505b5b601760008973ffffffffffffffffffffffffffffffffffffffff1673ffffffffffffffffffffffffffffffffffffffff16815260200190815260200160002060008873ffffffffffffffffffffffffffffffffffffffff1673ffffffffffffffffffffffffffffffffffffffff16815260200190815260200160002060009054906101000a900460ff1680156136a65750601760008873ffffffffffffffffffffffffffffffffffffffff1673ffffffffffffffffffffffffffffffffffffffff16815260200190815260200160002060008973ffffffffffffffffffffffffffffffffffffffff1673ffffffffffffffffffffffffffffffffffffffff16815260200190815260200160002060009054906101000a900460ff165b156139d957600073ffffffffffffffffffffffffffffffffffffffff16601960008a73ffffffffffffffffffffffffffffffffffffffff1673ffffffffffffffffffffffffffffffffffffffff16815260200190815260200160002060009054906101000a900473ffffffffffffffffffffffffffffffffffffffff1673ffffffffffffffffffffffffffffffffffffffff16036137f65786601960008a73ffffffffffffffffffffffffffffffffffffffff1673ffffffffffffffffffffffffffffffffffffffff16815260200190815260200160002060006101000a81548173ffffffffffffffffffffffffffffffffffffffff021916908373ffffffffffffffffffffffffffffffffffffffff1602179055507f0d128562eaa47ab89086803e64a0f96847c0ed3cc63c26251f29ba1aede09d4e88886040516137ed9291906157d5565b60405180910390a15b60001515601860008973ffffffffffffffffffffffffffffffffffffffff1673ffffffffffffffffffffffffffffffffffffffff16815260200190815260200160002060008a73ffffffffffffffffffffffffffffffffffffffff1673ffffffffffffffffffffffffffffffffffffffff16815260200190815260200160002060009054906101000a900460ff161515036139d857601660008873ffffffffffffffffffffffffffffffffffffffff1673ffffffffffffffffffffffffffffffffffffffff168152602001908152602001600020600081819054906101000a900463ffffffff16809291906138ea906157fe565b91906101000a81548163ffffffff021916908363ffffffff160217905550506001601860008973ffffffffffffffffffffffffffffffffffffffff1673ffffffffffffffffffffffffffffffffffffffff16815260200190815260200160002060008a73ffffffffffffffffffffffffffffffffffffffff1673ffffffffffffffffffffffffffffffffffffffff16815260200190815260200160002060006101000a81548160ff0219169083151502179055507fa7f319d32ea1111130a0941caa632eb49779c9ca37820ae07e85f9f0ebbb51c887896040516139cf9291906157d5565b60405180910390a15b5b600073ffffffffffffffffffffffffffffffffffffffff16600960009054906101000a900473ffffffffffffffffffffffffffffffffffffffff1673ffffffffffffffffffffffffffffffffffffffff1614158015613a855750600960009054906101000a900473ffffffffffffffffffffffffffffffffffffffff1673ffffffffffffffffffffffffffffffffffffffff168773ffffffffffffffffffffffffffffffffffffffff16145b15613b0d57600960009054906101000a900473ffffffffffffffffffffffffffffffffffffffff1673ffffffffffffffffffffffffffffffffffffffff1663bac051ad6040518163ffffffff1660e01b8152600401600060405180830381600087803b158015613af457600080fd5b505af1158015613b08573d6000803e3d6000fd5b505050505b5050505050505050565b600660009054906101000a900473ffffffffffffffffffffffffffffffffffffffff1673ffffffffffffffffffffffffffffffffffffffff163373ffffffffffffffffffffffffffffffffffffffff1614613b7157600080fd5b565b600073ffffffffffffffffffffffffffffffffffffffff168273ffffffffffffffffffffffffffffffffffffffff1603613be55760006040517fec442f05000000000000000000000000000000000000000000000000000000008152600401613bdc9190614bbb565b60405180910390fd5b613bf160008383613d75565b5050565b6000601060009054906101000a900473ffffffffffffffffffffffffffffffffffffffff1673ffffffffffffffffffffffffffffffffffffffff1663e6a4390584846040518363ffffffff1660e01b8152600401613c549291906157d5565b602060405180830381865afa158015613c71573d6000803e3d6000fd5b505050506040513d601f19601f82011682018060405250810190613c95919061583f565b9050600073ffffffffffffffffffffffffffffffffffffffff168173ffffffffffffffffffffffffffffffffffffffff1603613cd057600080fd5b92915050565b600760009054906101000a900473ffffffffffffffffffffffffffffffffffffffff1673ffffffffffffffffffffffffffffffffffffffff163373ffffffffffffffffffffffffffffffffffffffff1614613d3057600080fd5b565b60008084118015613d435750600083115b8015613d4f5750600082115b15613d6e57818385613d619190614d89565b613d6b9190614d58565b90505b9392505050565b600073ffffffffffffffffffffffffffffffffffffffff168373ffffffffffffffffffffffffffffffffffffffff1603613dc7578060026000828254613dbb9190614e6b565b92505081905550613e9a565b60008060008573ffffffffffffffffffffffffffffffffffffffff1673ffffffffffffffffffffffffffffffffffffffff16815260200190815260200160002054905081811015613e53578381836040517fe450d38c000000000000000000000000000000000000000000000000000000008152600401613e4a93929190614e9f565b60405180910390fd5b8181036000808673ffffffffffffffffffffffffffffffffffffffff1673ffffffffffffffffffffffffffffffffffffffff16815260200190815260200160002081905550505b600073ffffffffffffffffffffffffffffffffffffffff168273ffffffffffffffffffffffffffffffffffffffff1603613ee35780600260008282540392505081905550613f30565b806000808473ffffffffffffffffffffffffffffffffffffffff1673ffffffffffffffffffffffffffffffffffffffff168152602001908152602001600020600082825401925050819055505b8173ffffffffffffffffffffffffffffffffffffffff168373ffffffffffffffffffffffffffffffffffffffff167fddf252ad1be2c89b69c2b068fc378daa952ba7f163c4a11628f55a4df523b3ef83604051613f8d919061484f565b60405180910390a3505050565b600d60009054906101000a900473ffffffffffffffffffffffffffffffffffffffff1673ffffffffffffffffffffffffffffffffffffffff1663fff6cae96040518163ffffffff1660e01b8152600401600060405180830381600087803b15801561400457600080fd5b505af1158015614018573d6000803e3d6000fd5b50505050565b600073ffffffffffffffffffffffffffffffffffffffff168473ffffffffffffffffffffffffffffffffffffffff16036140905760006040517fe602df050000000000000000000000000000000000000000000000000000000081526004016140879190614bbb565b60405180910390fd5b600073ffffffffffffffffffffffffffffffffffffffff168373ffffffffffffffffffffffffffffffffffffffff16036141025760006040517f94280d620000000000000000000000000000000000000000000000000000000081526004016140f99190614bbb565b60405180910390fd5b81600160008673ffffffffffffffffffffffffffffffffffffffff1673ffffffffffffffffffffffffffffffffffffffff16815260200190815260200160002060008573ffffffffffffffffffffffffffffffffffffffff1673ffffffffffffffffffffffffffffffffffffffff1681526020019081526020016000208190555080156141ef578273ffffffffffffffffffffffffffffffffffffffff168473ffffffffffffffffffffffffffffffffffffffff167f8c5be1e5ebec7d5bd14f71427d1e84f3dd0314c0f7b2291e5b200ac8c7c3b925846040516141e6919061484f565b60405180910390a35b50505050565b600061422330600d60009054906101000a900473ffffffffffffffffffffffffffffffffffffffff16612851565b9050670de0b6b3a764000081111561435357600060125490506000606460078461424d9190614d89565b6142579190614d58565b9050614287600d60009054906101000a900473ffffffffffffffffffffffffffffffffffffffff16600083613d75565b42601060146101000a81548167ffffffffffffffff021916908367ffffffffffffffff1602179055506142b86122a8565b6012819055506142c6613f9a565b7fd9bf2a938bd91ae943f7d39c11065b45dae31398f934248434be832bf9da7dc381601060149054906101000a900467ffffffffffffffff1660405161430d92919061554a565b60405180910390a17f8b49109cd5767f43f65aaaae99075135a684e87312ed89a5e0d69e96bed715cb8260125460405161434892919061586c565b60405180910390a150505b50565b600061438430600d60009054906101000a900473ffffffffffffffffffffffffffffffffffffffff16612851565b9050600080601060149054906101000a900467ffffffffffffffff1667ffffffffffffffff16036143d95742601060146101000a81548167ffffffffffffffff021916908367ffffffffffffffff1602179055505b670de0b6b3a76400008211801561441d5750610e10601060149054906101000a900467ffffffffffffffff1661440f919061550e565b67ffffffffffffffff164210155b801561444a57506000601060149054906101000a900467ffffffffffffffff1667ffffffffffffffff1614155b156144cd57610e10601060149054906101000a900467ffffffffffffffff1667ffffffffffffffff164261447e9190614ed6565b6144889190614d58565b600f612710846144989190614d58565b6144a29190614d89565b6144ac9190614d89565b90508181106144cc57670de0b6b3a7640000826144c99190614ed6565b90505b5b60008111156145d6576000601254905061450b600d60009054906101000a900473ffffffffffffffffffffffffffffffffffffffff16600084613d75565b42601060146101000a81548167ffffffffffffffff021916908367ffffffffffffffff16021790555061453c6122a8565b60128190555061454a613f9a565b7fd9bf2a938bd91ae943f7d39c11065b45dae31398f934248434be832bf9da7dc382601060149054906101000a900467ffffffffffffffff1660405161459192919061554a565b60405180910390a17f8b49109cd5767f43f65aaaae99075135a684e87312ed89a5e0d69e96bed715cb816012546040516145cc92919061586c565b60405180910390a1505b5050565b600080fd5b600073ffffffffffffffffffffffffffffffffffffffff82169050919050565b600061460a826145df565b9050919050565b61461a816145ff565b811461462557600080fd5b50565b60008135905061463781614611565b92915050565b600060208284031215614653576146526145da565b5b600061466184828501614628565b91505092915050565b600063ffffffff82169050919050565b6146838161466a565b82525050565b600060208201905061469e600083018461467a565b92915050565b600081519050919050565b600082825260208201905092915050565b60005b838110156146de5780820151818401526020810190506146c3565b60008484015250505050565b6000601f19601f8301169050919050565b6000614706826146a4565b61471081856146af565b93506147208185602086016146c0565b614729816146ea565b840191505092915050565b6000602082019050818103600083015261474e81846146fb565b905092915050565b6000819050919050565b61476981614756565b811461477457600080fd5b50565b60008135905061478681614760565b92915050565b600080604083850312156147a3576147a26145da565b5b60006147b185828601614628565b92505060206147c285828601614777565b9150509250929050565b60008115159050919050565b6147e1816147cc565b82525050565b60006020820190506147fc60008301846147d8565b92915050565b600067ffffffffffffffff82169050919050565b61481f81614802565b82525050565b600060208201905061483a6000830184614816565b92915050565b61484981614756565b82525050565b60006020820190506148646000830184614840565b92915050565b60008060408385031215614881576148806145da565b5b600061488f85828601614628565b92505060206148a085828601614628565b9150509250929050565b6000806000606084860312156148c3576148c26145da565b5b60006148d186828701614628565b93505060206148e286828701614628565b92505060406148f386828701614777565b9150509250925092565b614906816147cc565b811461491157600080fd5b50565b600081359050614923816148fd565b92915050565b60006020828403121561493f5761493e6145da565b5b600061494d84828501614914565b91505092915050565b600060ff82169050919050565b61496c81614956565b82525050565b60006020820190506149876000830184614963565b92915050565b600080600080600080600060e0888a0312156149ac576149ab6145da565b5b60006149ba8a828b01614628565b97505060206149cb8a828b01614628565b96505060406149dc8a828b01614628565b95505060606149ed8a828b01614628565b94505060806149fe8a828b01614628565b93505060a0614a0f8a828b01614628565b92505060c0614a208a828b01614628565b91505092959891949750929550565b614a388161466a565b8114614a4357600080fd5b50565b600081359050614a5581614a2f565b92915050565b60008060408385031215614a7257614a716145da565b5b6000614a8085828601614a46565b9250506020614a9185828601614a46565b9150509250929050565b60028110614aa857600080fd5b50565b600081359050614aba81614a9b565b92915050565b600060208284031215614ad657614ad56145da565b5b6000614ae484828501614aab565b91505092915050565b60008060408385031215614b0457614b036145da565b5b6000614b1285828601614aab565b9250506020614b2385828601614628565b9150509250929050565b614b3681614956565b8114614b4157600080fd5b50565b600081359050614b5381614b2d565b92915050565b600080600060608486031215614b7257614b716145da565b5b6000614b8086828701614b44565b9350506020614b9186828701614a46565b9250506040614ba286828701614a46565b9150509250925092565b614bb5816145ff565b82525050565b6000602082019050614bd06000830184614bac565b92915050565b600060208284031215614bec57614beb6145da565b5b6000614bfa84828501614777565b91505092915050565b60008060408385031215614c1a57614c196145da565b5b6000614c2885828601614aab565b9250506020614c3985828601614777565b9150509250929050565b60008060408385031215614c5a57614c596145da565b5b6000614c6885828601614aab565b9250506020614c7985828601614b44565b9150509250929050565b60008060408385031215614c9a57614c996145da565b5b6000614ca885828601614628565b9250506020614cb985828601614914565b9150509250929050565b6000606082019050614cd86000830186614840565b614ce56020830185614840565b614cf26040830184614840565b949350505050565b7f4e487b7100000000000000000000000000000000000000000000000000000000600052601260045260246000fd5b7f4e487b7100000000000000000000000000000000000000000000000000000000600052601160045260246000fd5b6000614d6382614756565b9150614d6e83614756565b925082614d7e57614d7d614cfa565b5b828204905092915050565b6000614d9482614756565b9150614d9f83614756565b9250828202614dad81614756565b91508282048414831517614dc457614dc3614d29565b5b5092915050565b7f4e487b7100000000000000000000000000000000000000000000000000000000600052603260045260246000fd5b7f4e487b7100000000000000000000000000000000000000000000000000000000600052602160045260246000fd5b600081519050614e3881614760565b92915050565b600060208284031215614e5457614e536145da565b5b6000614e6284828501614e29565b91505092915050565b6000614e7682614756565b9150614e8183614756565b9250828201905080821115614e9957614e98614d29565b5b92915050565b6000606082019050614eb46000830186614bac565b614ec16020830185614840565b614ece6040830184614840565b949350505050565b6000614ee182614756565b9150614eec83614756565b9250828203905081811115614f0457614f03614d29565b5b92915050565b7f4e487b7100000000000000000000000000000000000000000000000000000000600052602260045260246000fd5b60006002820490506001821680614f5157607f821691505b602082108103614f6457614f63614f0a565b5b50919050565b7f496e646578206f766572666c6f77000000000000000000000000000000000000600082015250565b6000614fa0600e836146af565b9150614fab82614f6a565b602082019050919050565b60006020820190508181036000830152614fcf81614f93565b9050919050565b7f416c726561647920646973747269627574650000000000000000000000000000600082015250565b600061500c6012836146af565b915061501782614fd6565b602082019050919050565b6000602082019050818103600083015261503b81614fff565b9050919050565b600061504d82614756565b915061505883614756565b92508261506857615067614cfa565b5b828206905092915050565b600061507e8261466a565b91506150898361466a565b92508282026150978161466a565b91508082146150a9576150a8614d29565b5b5092915050565b7f4e487b7100000000000000000000000000000000000000000000000000000000600052604160045260246000fd5b600081519050919050565b600082825260208201905092915050565b6000819050602082019050919050565b61511481614756565b82525050565b6000615126838361510b565b60208301905092915050565b6000602082019050919050565b600061514a826150df565b61515481856150ea565b935061515f836150fb565b8060005b83811015615190578151615177888261511a565b975061518283615132565b925050600181019050615163565b5085935050505092915050565b600081519050919050565b600082825260208201905092915050565b6000819050602082019050919050565b6151d2816145ff565b82525050565b60006151e483836151c9565b60208301905092915050565b6000602082019050919050565b60006152088261519d565b61521281856151a8565b935061521d836151b9565b8060005b8381101561524e57815161523588826151d8565b9750615240836151f0565b925050600181019050615221565b5085935050505092915050565b6000608082019050615270600083018761467a565b61527d602083018661467a565b818103604083015261528f818561513f565b905081810360608301526152a381846151fd565b905095945050505050565b6000815190506152bd81614b2d565b92915050565b6000602082840312156152d9576152d86145da565b5b60006152e7848285016152ae565b91505092915050565b60006152fb82614956565b915061530683614956565b9250828203905060ff81111561531f5761531e614d29565b5b92915050565b60008160011c9050919050565b6000808291508390505b600185111561537c5780860481111561535857615357614d29565b5b60018516156153675780820291505b808102905061537585615325565b945061533c565b94509492505050565b6000826153955760019050615451565b816153a35760009050615451565b81600181146153b957600281146153c3576153f2565b6001915050615451565b60ff8411156153d5576153d4614d29565b5b8360020a9150848211156153ec576153eb614d29565b5b50615451565b5060208310610133831016604e8410600b84101617156154275782820a90508381111561542257615421614d29565b5b615451565b6154348484846001615332565b9250905081840481111561544b5761544a614d29565b5b81810290505b9392505050565b600061546382614756565b915061546e83614956565b925061549b7fffffffffffffffffffffffffffffffffffffffffffffffffffffffffffffffff8484615385565b905092915050565b60006040820190506154b86000830185614bac565b6154c56020830184614840565b9392505050565b6000815190506154db816148fd565b92915050565b6000602082840312156154f7576154f66145da565b5b6000615505848285016154cc565b91505092915050565b600061551982614802565b915061552483614802565b9250828201905067ffffffffffffffff81111561554457615543614d29565b5b92915050565b600060408201905061555f6000830185614840565b61556c6020830184614816565b9392505050565b600081905092915050565b50565b600061558e600083615573565b91506155998261557e565b600082019050919050565b60006155af82615581565b9150819050919050565b7f496e76616c69642066726f6d2e00000000000000000000000000000000000000600082015250565b60006155ef600d836146af565b91506155fa826155b9565b602082019050919050565b6000602082019050818103600083015261561e816155e2565b9050919050565b7f496e76616c696420746f2e000000000000000000000000000000000000000000600082015250565b600061565b600b836146af565b915061566682615625565b602082019050919050565b6000602082019050818103600083015261568a8161564e565b9050919050565b7f53746f7020627579696e672e0000000000000000000000000000000000000000600082015250565b60006156c7600c836146af565b91506156d282615691565b602082019050919050565b600060208201905081810360008301526156f6816156ba565b9050919050565b7f52656d6f766520697320636c6f7365642e000000000000000000000000000000600082015250565b60006157336011836146af565b915061573e826156fd565b602082019050919050565b6000602082019050818103600083015261576281615726565b9050919050565b7f42616c616e6365203c2031206574686572000000000000000000000000000000600082015250565b600061579f6011836146af565b91506157aa82615769565b602082019050919050565b600060208201905081810360008301526157ce81615792565b9050919050565b60006040820190506157ea6000830185614bac565b6157f76020830184614bac565b9392505050565b60006158098261466a565b915063ffffffff820361581f5761581e614d29565b5b600182019050919050565b60008151905061583981614611565b92915050565b600060208284031215615855576158546145da565b5b60006158638482850161582a565b91505092915050565b60006040820190506158816000830185614840565b61588e6020830184614840565b939250505056fea264697066735822122070e59939ead4fc5840b824c253720ef46ebc4776f5087abf8cc00d27b4e8900964736f6c63430008170033",
  "linkReferences": {},
  "deployedLinkReferences": {}
}