{
  "_format": "hh-sol-artifact-1",
  "contractName": "ZSRelayVault",
  "sourceName": "contracts/core/ZSRelayVault.sol",
  "abi": [
    {
      "inputs": [
        {
          "internalType": "address",
          "name": "currentOwner",
          "type": "address"
        },
        {
          "internalType": "address",
          "name": "currentZSToken",
          "type": "address"
        },
        {
          "internalType": "address",
          "name": "currentWBNB",
          "type": "address"
        },
        {
          "internalType": "address",
          "name": "currentRouter",
          "type": "address"
        }
      ],
      "stateMutability": "nonpayable",
      "type": "constructor"
    },
    {
      "inputs": [
        {
          "internalType": "address",
          "name": "target",
          "type": "address"
        }
      ],
      "name": "AddressEmptyCode",
      "type": "error"
    },
    {
      "inputs": [
        {
          "internalType": "address",
          "name": "account",
          "type": "address"
        }
      ],
      "name": "AddressInsufficientBalance",
      "type": "error"
    },
    {
      "inputs": [],
      "name": "FailedInnerCall",
      "type": "error"
    },
    {
      "inputs": [
        {
          "internalType": "address",
          "name": "owner",
          "type": "address"
        }
      ],
      "name": "OwnableInvalidOwner",
      "type": "error"
    },
    {
      "inputs": [
        {
          "internalType": "address",
          "name": "account",
          "type": "address"
        }
      ],
      "name": "OwnableUnauthorizedAccount",
      "type": "error"
    },
    {
      "inputs": [],
      "name": "ReentrancyGuardReentrantCall",
      "type": "error"
    },
    {
      "inputs": [
        {
          "internalType": "address",
          "name": "token",
          "type": "address"
        }
      ],
      "name": "SafeERC20FailedOperation",
      "type": "error"
    },
    {
      "anonymous": false,
      "inputs": [
        {
          "indexed": true,
          "internalType": "address",
          "name": "previousOwner",
          "type": "address"
        },
        {
          "indexed": true,
          "internalType": "address",
          "name": "newOwner",
          "type": "address"
        }
      ],
      "name": "OwnershipTransferred",
      "type": "event"
    },
    {
      "anonymous": false,
      "inputs": [
        {
          "indexed": false,
          "internalType": "address",
          "name": "token",
          "type": "address"
        },
        {
          "indexed": false,
          "internalType": "uint256",
          "name": "amount",
          "type": "uint256"
        }
      ],
      "name": "Skim",
      "type": "event"
    },
    {
      "inputs": [
        {
          "internalType": "address",
          "name": "receiver",
          "type": "address"
        }
      ],
      "name": "deposite",
      "outputs": [
        {
          "internalType": "uint256",
          "name": "lpAmount",
          "type": "uint256"
        }
      ],
      "stateMutability": "payable",
      "type": "function"
    },
    {
      "inputs": [
        {
          "internalType": "address",
          "name": "token",
          "type": "address"
        },
        {
          "internalType": "address",
          "name": "account",
          "type": "address"
        }
      ],
      "name": "getTokenBalance",
      "outputs": [
        {
          "internalType": "uint256",
          "name": "userTokenBalance",
          "type": "uint256"
        }
      ],
      "stateMutability": "view",
      "type": "function"
    },
    {
      "inputs": [],
      "name": "owner",
      "outputs": [
        {
          "internalType": "address",
          "name": "",
          "type": "address"
        }
      ],
      "stateMutability": "view",
      "type": "function"
    },
    {
      "inputs": [],
      "name": "renounceOwnership",
      "outputs": [],
      "stateMutability": "nonpayable",
      "type": "function"
    },
    {
      "inputs": [],
      "name": "router",
      "outputs": [
        {
          "internalType": "address",
          "name": "",
          "type": "address"
        }
      ],
      "stateMutability": "view",
      "type": "function"
    },
    {
      "inputs": [
        {
          "internalType": "address",
          "name": "receiver",
          "type": "address"
        },
        {
          "internalType": "uint256",
          "name": "amountIn",
          "type": "uint256"
        }
      ],
      "name": "sell",
      "outputs": [],
      "stateMutability": "nonpayable",
      "type": "function"
    },
    {
      "inputs": [
        {
          "internalType": "address",
          "name": "token",
          "type": "address"
        },
        {
          "internalType": "address",
          "name": "receiver",
          "type": "address"
        }
      ],
      "name": "skim",
      "outputs": [],
      "stateMutability": "nonpayable",
      "type": "function"
    },
    {
      "inputs": [
        {
          "internalType": "address",
          "name": "newOwner",
          "type": "address"
        }
      ],
      "name": "transferOwnership",
      "outputs": [],
      "stateMutability": "nonpayable",
      "type": "function"
    },
    {
      "inputs": [],
      "name": "wbnb",
      "outputs": [
        {
          "internalType": "address",
          "name": "",
          "type": "address"
        }
      ],
      "stateMutability": "view",
      "type": "function"
    },
    {
      "inputs": [],
      "name": "zsToken",
      "outputs": [
        {
          "internalType": "address",
          "name": "",
          "type": "address"
        }
      ],
      "stateMutability": "view",
      "type": "function"
    },
    {
      "stateMutability": "payable",
      "type": "receive"
    }
  ],
  "bytecode": "0x60806040523480156200001157600080fd5b5060405162001f4a38038062001f4a8339818101604052810190620000379190620002c1565b83600073ffffffffffffffffffffffffffffffffffffffff168173ffffffffffffffffffffffffffffffffffffffff1603620000ad5760006040517f1e4fbdf7000000000000000000000000000000000000000000000000000000008152600401620000a4919062000344565b60405180910390fd5b620000be816200019360201b60201c565b506001808190555082600260006101000a81548173ffffffffffffffffffffffffffffffffffffffff021916908373ffffffffffffffffffffffffffffffffffffffff16021790555081600360006101000a81548173ffffffffffffffffffffffffffffffffffffffff021916908373ffffffffffffffffffffffffffffffffffffffff16021790555080600460006101000a81548173ffffffffffffffffffffffffffffffffffffffff021916908373ffffffffffffffffffffffffffffffffffffffff1602179055505050505062000361565b60008060009054906101000a900473ffffffffffffffffffffffffffffffffffffffff169050816000806101000a81548173ffffffffffffffffffffffffffffffffffffffff021916908373ffffffffffffffffffffffffffffffffffffffff1602179055508173ffffffffffffffffffffffffffffffffffffffff168173ffffffffffffffffffffffffffffffffffffffff167f8be0079c531659141344cd1fd0a4f28419497f9722a3daafe3b4186f6b6457e060405160405180910390a35050565b600080fd5b600073ffffffffffffffffffffffffffffffffffffffff82169050919050565b600062000289826200025c565b9050919050565b6200029b816200027c565b8114620002a757600080fd5b50565b600081519050620002bb8162000290565b92915050565b60008060008060808587031215620002de57620002dd62000257565b5b6000620002ee87828801620002aa565b94505060206200030187828801620002aa565b93505060406200031487828801620002aa565b92505060606200032787828801620002aa565b91505092959194509250565b6200033e816200027c565b82525050565b60006020820190506200035b600083018462000333565b92915050565b611bd980620003716000396000f3fe6080604052600436106100955760003560e01c80638d72647e116100595780638d72647e146101655780638da5cb5b14610190578063c489744b146101bb578063f2fde38b146101f8578063f887ea40146102215761009c565b80636c197ff5146100a1578063712b772f146100ca578063715018a6146100f35780637a92ac6a1461010a57806382c7f627146101355761009c565b3661009c57005b600080fd5b3480156100ad57600080fd5b506100c860048036038101906100c39190611301565b61024c565b005b3480156100d657600080fd5b506100f160048036038101906100ec9190611341565b610500565b005b3480156100ff57600080fd5b506101086106d8565b005b34801561011657600080fd5b5061011f6106ec565b60405161012c9190611390565b60405180910390f35b61014f600480360381019061014a91906113ab565b610712565b60405161015c91906113e7565b60405180910390f35b34801561017157600080fd5b5061017a610bc1565b6040516101879190611390565b60405180910390f35b34801561019c57600080fd5b506101a5610be7565b6040516101b29190611390565b60405180910390f35b3480156101c757600080fd5b506101e260048036038101906101dd9190611341565b610c10565b6040516101ef91906113e7565b60405180910390f35b34801561020457600080fd5b5061021f600480360381019061021a91906113ab565b610ce7565b005b34801561022d57600080fd5b50610236610d6d565b6040516102439190611390565b60405180910390f35b610254610d93565b6000600267ffffffffffffffff81111561027157610270611402565b5b60405190808252806020026020018201604052801561029f5781602001602082028036833780820191505090505b509050600260009054906101000a900473ffffffffffffffffffffffffffffffffffffffff16816000815181106102d9576102d8611431565b5b602002602001019073ffffffffffffffffffffffffffffffffffffffff16908173ffffffffffffffffffffffffffffffffffffffff1681525050600360009054906101000a900473ffffffffffffffffffffffffffffffffffffffff168160018151811061034a57610349611431565b5b602002602001019073ffffffffffffffffffffffffffffffffffffffff16908173ffffffffffffffffffffffffffffffffffffffff1681525050600260009054906101000a900473ffffffffffffffffffffffffffffffffffffffff1673ffffffffffffffffffffffffffffffffffffffff1663095ea7b3600460009054906101000a900473ffffffffffffffffffffffffffffffffffffffff16846040518363ffffffff1660e01b8152600401610403929190611460565b6020604051808303816000875af1158015610422573d6000803e3d6000fd5b505050506040513d601f19601f8201168201806040525081019061044691906114c1565b50600460009054906101000a900473ffffffffffffffffffffffffffffffffffffffff1673ffffffffffffffffffffffffffffffffffffffff166318cbafe58360008487610492610e1a565b6040518663ffffffff1660e01b81526004016104b29594939291906115f1565b6000604051808303816000875af11580156104d1573d6000803e3d6000fd5b505050506040513d6000823e3d601f19601f820116820180604052508101906104fa919061178a565b50505050565b610508610d93565b60008073ffffffffffffffffffffffffffffffffffffffff168373ffffffffffffffffffffffffffffffffffffffff16036105f25747905060008273ffffffffffffffffffffffffffffffffffffffff168260405161056690611804565b60006040518083038185875af1925050503d80600081146105a3576040519150601f19603f3d011682016040523d82523d6000602084013e6105a8565b606091505b50509050806105ec576040517f08c379a00000000000000000000000000000000000000000000000000000000081526004016105e390611876565b60405180910390fd5b5061069a565b8273ffffffffffffffffffffffffffffffffffffffff166370a08231306040518263ffffffff1660e01b815260040161062b9190611390565b602060405180830381865afa158015610648573d6000803e3d6000fd5b505050506040513d601f19601f8201168201806040525081019061066c9190611896565b905061069982828573ffffffffffffffffffffffffffffffffffffffff16610e2e9092919063ffffffff16565b5b7f5e99aaf6d3588fb2497fde044168e8c046704a3223559cfe107f8f94b42cefdd83826040516106cb929190611460565b60405180910390a1505050565b6106e0610d93565b6106ea6000610ead565b565b600260009054906101000a900473ffffffffffffffffffffffffffffffffffffffff1681565b600061071c610f71565b600060023461072b9190611921565b90506000600267ffffffffffffffff81111561074a57610749611402565b5b6040519080825280602002602001820160405280156107785781602001602082028036833780820191505090505b509050600360009054906101000a900473ffffffffffffffffffffffffffffffffffffffff16816000815181106107b2576107b1611431565b5b602002602001019073ffffffffffffffffffffffffffffffffffffffff16908173ffffffffffffffffffffffffffffffffffffffff1681525050600260009054906101000a900473ffffffffffffffffffffffffffffffffffffffff168160018151811061082357610822611431565b5b602002602001019073ffffffffffffffffffffffffffffffffffffffff16908173ffffffffffffffffffffffffffffffffffffffff1681525050600061088b600260009054906101000a900473ffffffffffffffffffffffffffffffffffffffff1630610c10565b9050600460009054906101000a900473ffffffffffffffffffffffffffffffffffffffff1673ffffffffffffffffffffffffffffffffffffffff16637ff36ab584600085306108d8610e1a565b6040518663ffffffff1660e01b81526004016108f79493929190611952565b60006040518083038185885af1158015610915573d6000803e3d6000fd5b50505050506040513d6000823e3d601f19601f8201168201806040525081019061093f919061178a565b50600061096e600260009054906101000a900473ffffffffffffffffffffffffffffffffffffffff1630610c10565b90506000828261097e919061199e565b9050600260009054906101000a900473ffffffffffffffffffffffffffffffffffffffff1673ffffffffffffffffffffffffffffffffffffffff1663095ea7b3600460009054906101000a900473ffffffffffffffffffffffffffffffffffffffff16836040518363ffffffff1660e01b81526004016109ff929190611460565b6020604051808303816000875af1158015610a1e573d6000803e3d6000fd5b505050506040513d601f19601f82011682018060405250810190610a4291906114c1565b50600460009054906101000a900473ffffffffffffffffffffffffffffffffffffffff1673ffffffffffffffffffffffffffffffffffffffff1663f305d71986600260009054906101000a900473ffffffffffffffffffffffffffffffffffffffff168460008030610ab2610e1a565b6040518863ffffffff1660e01b8152600401610ad3969594939291906119d2565b60606040518083038185885af1158015610af1573d6000803e3d6000fd5b50505050506040513d601f19601f82011682018060405250810190610b169190611a33565b9091509050809650506000610b4d600260009054906101000a900473ffffffffffffffffffffffffffffffffffffffff1630610c10565b905083811115610bb65760008482610b65919061199e565b9050610bb48982600260009054906101000a900473ffffffffffffffffffffffffffffffffffffffff1673ffffffffffffffffffffffffffffffffffffffff16610e2e9092919063ffffffff16565b505b505050505050919050565b600360009054906101000a900473ffffffffffffffffffffffffffffffffffffffff1681565b60008060009054906101000a900473ffffffffffffffffffffffffffffffffffffffff16905090565b60008073ffffffffffffffffffffffffffffffffffffffff168373ffffffffffffffffffffffffffffffffffffffff1603610c64578173ffffffffffffffffffffffffffffffffffffffff16319050610ce1565b8273ffffffffffffffffffffffffffffffffffffffff166370a08231836040518263ffffffff1660e01b8152600401610c9d9190611390565b602060405180830381865afa158015610cba573d6000803e3d6000fd5b505050506040513d601f19601f82011682018060405250810190610cde9190611896565b90505b92915050565b610cef610d93565b600073ffffffffffffffffffffffffffffffffffffffff168173ffffffffffffffffffffffffffffffffffffffff1603610d615760006040517f1e4fbdf7000000000000000000000000000000000000000000000000000000008152600401610d589190611390565b60405180910390fd5b610d6a81610ead565b50565b600460009054906101000a900473ffffffffffffffffffffffffffffffffffffffff1681565b610d9b611003565b73ffffffffffffffffffffffffffffffffffffffff16610db9610be7565b73ffffffffffffffffffffffffffffffffffffffff1614610e1857610ddc611003565b6040517f118cdaa7000000000000000000000000000000000000000000000000000000008152600401610e0f9190611390565b60405180910390fd5b565b6000603c42610e299190611a86565b905090565b610ea8838473ffffffffffffffffffffffffffffffffffffffff1663a9059cbb8585604051602401610e61929190611460565b604051602081830303815290604052915060e01b6020820180517bffffffffffffffffffffffffffffffffffffffffffffffffffffffff838183161783525050505061100b565b505050565b60008060009054906101000a900473ffffffffffffffffffffffffffffffffffffffff169050816000806101000a81548173ffffffffffffffffffffffffffffffffffffffff021916908373ffffffffffffffffffffffffffffffffffffffff1602179055508173ffffffffffffffffffffffffffffffffffffffff168173ffffffffffffffffffffffffffffffffffffffff167f8be0079c531659141344cd1fd0a4f28419497f9722a3daafe3b4186f6b6457e060405160405180910390a35050565b600260009054906101000a900473ffffffffffffffffffffffffffffffffffffffff1673ffffffffffffffffffffffffffffffffffffffff163373ffffffffffffffffffffffffffffffffffffffff1614611001576040517f08c379a0000000000000000000000000000000000000000000000000000000008152600401610ff890611b06565b60405180910390fd5b565b600033905090565b6000611036828473ffffffffffffffffffffffffffffffffffffffff166110a290919063ffffffff16565b9050600081511415801561105b57508080602001905181019061105991906114c1565b155b1561109d57826040517f5274afe70000000000000000000000000000000000000000000000000000000081526004016110949190611390565b60405180910390fd5b505050565b60606110b0838360006110b8565b905092915050565b6060814710156110ff57306040517fcd7860590000000000000000000000000000000000000000000000000000000081526004016110f69190611390565b60405180910390fd5b6000808573ffffffffffffffffffffffffffffffffffffffff1684866040516111289190611b8c565b60006040518083038185875af1925050503d8060008114611165576040519150601f19603f3d011682016040523d82523d6000602084013e61116a565b606091505b509150915061117a868383611185565b925050509392505050565b60608261119a5761119582611214565b61120c565b600082511480156111c2575060008473ffffffffffffffffffffffffffffffffffffffff163b145b1561120457836040517f9996b3150000000000000000000000000000000000000000000000000000000081526004016111fb9190611390565b60405180910390fd5b81905061120d565b5b9392505050565b6000815111156112275780518082602001fd5b6040517f1425ea4200000000000000000000000000000000000000000000000000000000815260040160405180910390fd5b6000604051905090565b600080fd5b600080fd5b600073ffffffffffffffffffffffffffffffffffffffff82169050919050565b60006112988261126d565b9050919050565b6112a88161128d565b81146112b357600080fd5b50565b6000813590506112c58161129f565b92915050565b6000819050919050565b6112de816112cb565b81146112e957600080fd5b50565b6000813590506112fb816112d5565b92915050565b6000806040838503121561131857611317611263565b5b6000611326858286016112b6565b9250506020611337858286016112ec565b9150509250929050565b6000806040838503121561135857611357611263565b5b6000611366858286016112b6565b9250506020611377858286016112b6565b9150509250929050565b61138a8161128d565b82525050565b60006020820190506113a56000830184611381565b92915050565b6000602082840312156113c1576113c0611263565b5b60006113cf848285016112b6565b91505092915050565b6113e1816112cb565b82525050565b60006020820190506113fc60008301846113d8565b92915050565b7f4e487b7100000000000000000000000000000000000000000000000000000000600052604160045260246000fd5b7f4e487b7100000000000000000000000000000000000000000000000000000000600052603260045260246000fd5b60006040820190506114756000830185611381565b61148260208301846113d8565b9392505050565b60008115159050919050565b61149e81611489565b81146114a957600080fd5b50565b6000815190506114bb81611495565b92915050565b6000602082840312156114d7576114d6611263565b5b60006114e5848285016114ac565b91505092915050565b6000819050919050565b6000819050919050565b600061151d611518611513846114ee565b6114f8565b6112cb565b9050919050565b61152d81611502565b82525050565b600081519050919050565b600082825260208201905092915050565b6000819050602082019050919050565b6115688161128d565b82525050565b600061157a838361155f565b60208301905092915050565b6000602082019050919050565b600061159e82611533565b6115a8818561153e565b93506115b38361154f565b8060005b838110156115e45781516115cb888261156e565b97506115d683611586565b9250506001810190506115b7565b5085935050505092915050565b600060a08201905061160660008301886113d8565b6116136020830187611524565b81810360408301526116258186611593565b90506116346060830185611381565b61164160808301846113d8565b9695505050505050565b600080fd5b6000601f19601f8301169050919050565b61166a82611650565b810181811067ffffffffffffffff8211171561168957611688611402565b5b80604052505050565b600061169c611259565b90506116a88282611661565b919050565b600067ffffffffffffffff8211156116c8576116c7611402565b5b602082029050602081019050919050565b600080fd5b6000815190506116ed816112d5565b92915050565b6000611706611701846116ad565b611692565b90508083825260208201905060208402830185811115611729576117286116d9565b5b835b81811015611752578061173e88826116de565b84526020840193505060208101905061172b565b5050509392505050565b600082601f8301126117715761177061164b565b5b81516117818482602086016116f3565b91505092915050565b6000602082840312156117a05761179f611263565b5b600082015167ffffffffffffffff8111156117be576117bd611268565b5b6117ca8482850161175c565b91505092915050565b600081905092915050565b50565b60006117ee6000836117d3565b91506117f9826117de565b600082019050919050565b600061180f826117e1565b9150819050919050565b600082825260208201905092915050565b7f43616c6c206e6174697665206661696c00000000000000000000000000000000600082015250565b6000611860601083611819565b915061186b8261182a565b602082019050919050565b6000602082019050818103600083015261188f81611853565b9050919050565b6000602082840312156118ac576118ab611263565b5b60006118ba848285016116de565b91505092915050565b7f4e487b7100000000000000000000000000000000000000000000000000000000600052601260045260246000fd5b7f4e487b7100000000000000000000000000000000000000000000000000000000600052601160045260246000fd5b600061192c826112cb565b9150611937836112cb565b925082611947576119466118c3565b5b828204905092915050565b60006080820190506119676000830187611524565b81810360208301526119798186611593565b90506119886040830185611381565b61199560608301846113d8565b95945050505050565b60006119a9826112cb565b91506119b4836112cb565b92508282039050818111156119cc576119cb6118f2565b5b92915050565b600060c0820190506119e76000830189611381565b6119f460208301886113d8565b611a016040830187611524565b611a0e6060830186611524565b611a1b6080830185611381565b611a2860a08301846113d8565b979650505050505050565b600080600060608486031215611a4c57611a4b611263565b5b6000611a5a868287016116de565b9350506020611a6b868287016116de565b9250506040611a7c868287016116de565b9150509250925092565b6000611a91826112cb565b9150611a9c836112cb565b9250828201905080821115611ab457611ab36118f2565b5b92915050565b7f496e76616c69642063616c6c6572000000000000000000000000000000000000600082015250565b6000611af0600e83611819565b9150611afb82611aba565b602082019050919050565b60006020820190508181036000830152611b1f81611ae3565b9050919050565b600081519050919050565b60005b83811015611b4f578082015181840152602081019050611b34565b60008484015250505050565b6000611b6682611b26565b611b7081856117d3565b9350611b80818560208601611b31565b80840191505092915050565b6000611b988284611b5b565b91508190509291505056fea26469706673582212202e350364787b242db4f91e5b69351af9168e5308612fd75ac788b5236b72f17f64736f6c63430008170033",
  "linkReferences": {},
  "deployedLinkReferences": {}
}