{
  "_format": "hh-sol-artifact-1",
  "contractName": "ZSSharePool",
  "sourceName": "contracts/core/ZSSharePool.sol",
  "abi": [
    {
      "inputs": [
        {
          "internalType": "address",
          "name": "currentOwner",
          "type": "address"
        },
        {
          "internalType": "address",
          "name": "currentZSToken",
          "type": "address"
        }
      ],
      "stateMutability": "nonpayable",
      "type": "constructor"
    },
    {
      "inputs": [
        {
          "internalType": "address",
          "name": "target",
          "type": "address"
        }
      ],
      "name": "AddressEmptyCode",
      "type": "error"
    },
    {
      "inputs": [
        {
          "internalType": "address",
          "name": "account",
          "type": "address"
        }
      ],
      "name": "AddressInsufficientBalance",
      "type": "error"
    },
    {
      "inputs": [],
      "name": "FailedInnerCall",
      "type": "error"
    },
    {
      "inputs": [
        {
          "internalType": "address",
          "name": "owner",
          "type": "address"
        }
      ],
      "name": "OwnableInvalidOwner",
      "type": "error"
    },
    {
      "inputs": [
        {
          "internalType": "address",
          "name": "account",
          "type": "address"
        }
      ],
      "name": "OwnableUnauthorizedAccount",
      "type": "error"
    },
    {
      "inputs": [
        {
          "internalType": "address",
          "name": "token",
          "type": "address"
        }
      ],
      "name": "SafeERC20FailedOperation",
      "type": "error"
    },
    {
      "anonymous": false,
      "inputs": [
        {
          "indexed": true,
          "internalType": "address",
          "name": "previousOwner",
          "type": "address"
        },
        {
          "indexed": true,
          "internalType": "address",
          "name": "newOwner",
          "type": "address"
        }
      ],
      "name": "OwnershipTransferred",
      "type": "event"
    },
    {
      "anonymous": false,
      "inputs": [
        {
          "indexed": false,
          "internalType": "uint256",
          "name": "oldReserve",
          "type": "uint256"
        },
        {
          "indexed": false,
          "internalType": "uint256",
          "name": "newReserve",
          "type": "uint256"
        }
      ],
      "name": "UpdateReserve",
      "type": "event"
    },
    {
      "inputs": [
        {
          "internalType": "uint32",
          "name": "count",
          "type": "uint32"
        },
        {
          "internalType": "uint32",
          "name": "index",
          "type": "uint32"
        },
        {
          "internalType": "uint256[]",
          "name": "values",
          "type": "uint256[]"
        },
        {
          "internalType": "address[]",
          "name": "receivers",
          "type": "address[]"
        }
      ],
      "name": "batchTransfer",
      "outputs": [],
      "stateMutability": "nonpayable",
      "type": "function"
    },
    {
      "inputs": [],
      "name": "owner",
      "outputs": [
        {
          "internalType": "address",
          "name": "",
          "type": "address"
        }
      ],
      "stateMutability": "view",
      "type": "function"
    },
    {
      "inputs": [],
      "name": "renounceOwnership",
      "outputs": [],
      "stateMutability": "nonpayable",
      "type": "function"
    },
    {
      "inputs": [
        {
          "internalType": "address",
          "name": "newOwner",
          "type": "address"
        }
      ],
      "name": "transferOwnership",
      "outputs": [],
      "stateMutability": "nonpayable",
      "type": "function"
    },
    {
      "inputs": [],
      "name": "updateReserve",
      "outputs": [],
      "stateMutability": "nonpayable",
      "type": "function"
    },
    {
      "inputs": [
        {
          "internalType": "address",
          "name": "",
          "type": "address"
        },
        {
          "internalType": "uint32",
          "name": "",
          "type": "uint32"
        },
        {
          "internalType": "uint32",
          "name": "",
          "type": "uint32"
        }
      ],
      "name": "userIfEarn",
      "outputs": [
        {
          "internalType": "bool",
          "name": "",
          "type": "bool"
        }
      ],
      "stateMutability": "view",
      "type": "function"
    },
    {
      "inputs": [
        {
          "internalType": "address",
          "name": "token",
          "type": "address"
        }
      ],
      "name": "withdraw",
      "outputs": [],
      "stateMutability": "nonpayable",
      "type": "function"
    },
    {
      "inputs": [],
      "name": "zsReserve",
      "outputs": [
        {
          "internalType": "uint256",
          "name": "",
          "type": "uint256"
        }
      ],
      "stateMutability": "view",
      "type": "function"
    },
    {
      "inputs": [],
      "name": "zsToken",
      "outputs": [
        {
          "internalType": "address",
          "name": "",
          "type": "address"
        }
      ],
      "stateMutability": "view",
      "type": "function"
    },
    {
      "stateMutability": "payable",
      "type": "receive"
    }
  ],
  "bytecode": "0x60806040523480156200001157600080fd5b50604051620017cb380380620017cb833981810160405281019062000037919062000236565b81600073ffffffffffffffffffffffffffffffffffffffff168173ffffffffffffffffffffffffffffffffffffffff1603620000ad5760006040517f1e4fbdf7000000000000000000000000000000000000000000000000000000008152600401620000a491906200028e565b60405180910390fd5b620000be816200010860201b60201c565b5080600160006101000a81548173ffffffffffffffffffffffffffffffffffffffff021916908373ffffffffffffffffffffffffffffffffffffffff1602179055505050620002ab565b60008060009054906101000a900473ffffffffffffffffffffffffffffffffffffffff169050816000806101000a81548173ffffffffffffffffffffffffffffffffffffffff021916908373ffffffffffffffffffffffffffffffffffffffff1602179055508173ffffffffffffffffffffffffffffffffffffffff168173ffffffffffffffffffffffffffffffffffffffff167f8be0079c531659141344cd1fd0a4f28419497f9722a3daafe3b4186f6b6457e060405160405180910390a35050565b600080fd5b600073ffffffffffffffffffffffffffffffffffffffff82169050919050565b6000620001fe82620001d1565b9050919050565b6200021081620001f1565b81146200021c57600080fd5b50565b600081519050620002308162000205565b92915050565b6000806040838503121562000250576200024f620001cc565b5b600062000260858286016200021f565b925050602062000273858286016200021f565b9150509250929050565b6200028881620001f1565b82525050565b6000602082019050620002a560008301846200027d565b92915050565b61151080620002bb6000396000f3fe60806040526004361061008a5760003560e01c80637a92ac6a116100595780637a92ac6a1461012a5780638da5cb5b14610155578063b269b79b14610180578063bac051ad146101bd578063f2fde38b146101d457610091565b80632a6de18f146100965780633dc86e52146100bf57806351cff8d9146100ea578063715018a61461011357610091565b3661009157005b600080fd5b3480156100a257600080fd5b506100bd60048036038101906100b89190611069565b6101fd565b005b3480156100cb57600080fd5b506100d4610475565b6040516100e19190611117565b60405180910390f35b3480156100f657600080fd5b50610111600480360381019061010c9190611132565b61047b565b005b34801561011f57600080fd5b50610128610667565b005b34801561013657600080fd5b5061013f61067b565b60405161014c919061116e565b60405180910390f35b34801561016157600080fd5b5061016a6106a1565b604051610177919061116e565b60405180910390f35b34801561018c57600080fd5b506101a760048036038101906101a29190611189565b6106ca565b6040516101b491906111f7565b60405180910390f35b3480156101c957600080fd5b506101d2610706565b005b3480156101e057600080fd5b506101fb60048036038101906101f69190611132565b6107f4565b005b61020561087a565b60005b815181101561046e57600073ffffffffffffffffffffffffffffffffffffffff1682828151811061023c5761023b611212565b5b602002602001015173ffffffffffffffffffffffffffffffffffffffff161461046157600083828151811061027457610273611212565b5b602002602001015111801561032d5750600015156003600084848151811061029f5761029e611212565b5b602002602001015173ffffffffffffffffffffffffffffffffffffffff1673ffffffffffffffffffffffffffffffffffffffff16815260200190815260200160002060008763ffffffff1663ffffffff16815260200190815260200160002060008663ffffffff1663ffffffff16815260200190815260200160002060009054906101000a900460ff161515145b156103b4576103b382828151811061034857610347611212565b5b602002602001015184838151811061036357610362611212565b5b6020026020010151600160009054906101000a900473ffffffffffffffffffffffffffffffffffffffff1673ffffffffffffffffffffffffffffffffffffffff166109499092919063ffffffff16565b5b6001600360008484815181106103cd576103cc611212565b5b602002602001015173ffffffffffffffffffffffffffffffffffffffff1673ffffffffffffffffffffffffffffffffffffffff16815260200190815260200160002060008763ffffffff1663ffffffff16815260200190815260200160002060008663ffffffff1663ffffffff16815260200190815260200160002060006101000a81548160ff0219169083151502179055505b8080600101915050610208565b5050505050565b60025481565b6104836109c8565b60008073ffffffffffffffffffffffffffffffffffffffff168273ffffffffffffffffffffffffffffffffffffffff16036105775747905060008111156105725760003373ffffffffffffffffffffffffffffffffffffffff16826040516104ea90611272565b60006040518083038185875af1925050503d8060008114610527576040519150601f19603f3d011682016040523d82523d6000602084013e61052c565b606091505b5050905080610570576040517f08c379a0000000000000000000000000000000000000000000000000000000008152600401610567906112e4565b60405180910390fd5b505b610663565b600160009054906101000a900473ffffffffffffffffffffffffffffffffffffffff1673ffffffffffffffffffffffffffffffffffffffff166370a08231306040518263ffffffff1660e01b81526004016105d2919061116e565b602060405180830381865afa1580156105ef573d6000803e3d6000fd5b505050506040513d601f19601f820116820180604052508101906106139190611319565b90506106623382600160009054906101000a900473ffffffffffffffffffffffffffffffffffffffff1673ffffffffffffffffffffffffffffffffffffffff166109499092919063ffffffff16565b5b5050565b61066f6109c8565b6106796000610a4f565b565b600160009054906101000a900473ffffffffffffffffffffffffffffffffffffffff1681565b60008060009054906101000a900473ffffffffffffffffffffffffffffffffffffffff16905090565b6003602052826000526040600020602052816000526040600020602052806000526040600020600092509250509054906101000a900460ff1681565b61070e61087a565b60006002549050600160009054906101000a900473ffffffffffffffffffffffffffffffffffffffff1673ffffffffffffffffffffffffffffffffffffffff166370a08231306040518263ffffffff1660e01b8152600401610770919061116e565b602060405180830381865afa15801561078d573d6000803e3d6000fd5b505050506040513d601f19601f820116820180604052508101906107b19190611319565b6002819055507e142bf0fe1ee7234ff5a0dd4c529fb1d63b019b15642a4f47088fe65e5d39da816002546040516107e9929190611346565b60405180910390a150565b6107fc6109c8565b600073ffffffffffffffffffffffffffffffffffffffff168173ffffffffffffffffffffffffffffffffffffffff160361086e5760006040517f1e4fbdf7000000000000000000000000000000000000000000000000000000008152600401610865919061116e565b60405180910390fd5b61087781610a4f565b50565b600160009054906101000a900473ffffffffffffffffffffffffffffffffffffffff1673ffffffffffffffffffffffffffffffffffffffff163373ffffffffffffffffffffffffffffffffffffffff16148061090857506108d96106a1565b73ffffffffffffffffffffffffffffffffffffffff163373ffffffffffffffffffffffffffffffffffffffff16145b610947576040517f08c379a000000000000000000000000000000000000000000000000000000000815260040161093e906113bb565b60405180910390fd5b565b6109c3838473ffffffffffffffffffffffffffffffffffffffff1663a9059cbb858560405160240161097c9291906113db565b604051602081830303815290604052915060e01b6020820180517bffffffffffffffffffffffffffffffffffffffffffffffffffffffff8381831617835250505050610b13565b505050565b6109d0610baa565b73ffffffffffffffffffffffffffffffffffffffff166109ee6106a1565b73ffffffffffffffffffffffffffffffffffffffff1614610a4d57610a11610baa565b6040517f118cdaa7000000000000000000000000000000000000000000000000000000008152600401610a44919061116e565b60405180910390fd5b565b60008060009054906101000a900473ffffffffffffffffffffffffffffffffffffffff169050816000806101000a81548173ffffffffffffffffffffffffffffffffffffffff021916908373ffffffffffffffffffffffffffffffffffffffff1602179055508173ffffffffffffffffffffffffffffffffffffffff168173ffffffffffffffffffffffffffffffffffffffff167f8be0079c531659141344cd1fd0a4f28419497f9722a3daafe3b4186f6b6457e060405160405180910390a35050565b6000610b3e828473ffffffffffffffffffffffffffffffffffffffff16610bb290919063ffffffff16565b90506000815114158015610b63575080806020019051810190610b619190611430565b155b15610ba557826040517f5274afe7000000000000000000000000000000000000000000000000000000008152600401610b9c919061116e565b60405180910390fd5b505050565b600033905090565b6060610bc083836000610bc8565b905092915050565b606081471015610c0f57306040517fcd786059000000000000000000000000000000000000000000000000000000008152600401610c06919061116e565b60405180910390fd5b6000808573ffffffffffffffffffffffffffffffffffffffff168486604051610c3891906114c3565b60006040518083038185875af1925050503d8060008114610c75576040519150601f19603f3d011682016040523d82523d6000602084013e610c7a565b606091505b5091509150610c8a868383610c95565b925050509392505050565b606082610caa57610ca582610d24565b610d1c565b60008251148015610cd2575060008473ffffffffffffffffffffffffffffffffffffffff163b145b15610d1457836040517f9996b315000000000000000000000000000000000000000000000000000000008152600401610d0b919061116e565b60405180910390fd5b819050610d1d565b5b9392505050565b600081511115610d375780518082602001fd5b6040517f1425ea4200000000000000000000000000000000000000000000000000000000815260040160405180910390fd5b6000604051905090565b600080fd5b600080fd5b600063ffffffff82169050919050565b610d9681610d7d565b8114610da157600080fd5b50565b600081359050610db381610d8d565b92915050565b600080fd5b6000601f19601f8301169050919050565b7f4e487b7100000000000000000000000000000000000000000000000000000000600052604160045260246000fd5b610e0782610dbe565b810181811067ffffffffffffffff82111715610e2657610e25610dcf565b5b80604052505050565b6000610e39610d69565b9050610e458282610dfe565b919050565b600067ffffffffffffffff821115610e6557610e64610dcf565b5b602082029050602081019050919050565b600080fd5b6000819050919050565b610e8e81610e7b565b8114610e9957600080fd5b50565b600081359050610eab81610e85565b92915050565b6000610ec4610ebf84610e4a565b610e2f565b90508083825260208201905060208402830185811115610ee757610ee6610e76565b5b835b81811015610f105780610efc8882610e9c565b845260208401935050602081019050610ee9565b5050509392505050565b600082601f830112610f2f57610f2e610db9565b5b8135610f3f848260208601610eb1565b91505092915050565b600067ffffffffffffffff821115610f6357610f62610dcf565b5b602082029050602081019050919050565b600073ffffffffffffffffffffffffffffffffffffffff82169050919050565b6000610f9f82610f74565b9050919050565b610faf81610f94565b8114610fba57600080fd5b50565b600081359050610fcc81610fa6565b92915050565b6000610fe5610fe084610f48565b610e2f565b9050808382526020820190506020840283018581111561100857611007610e76565b5b835b81811015611031578061101d8882610fbd565b84526020840193505060208101905061100a565b5050509392505050565b600082601f8301126110505761104f610db9565b5b8135611060848260208601610fd2565b91505092915050565b6000806000806080858703121561108357611082610d73565b5b600061109187828801610da4565b94505060206110a287828801610da4565b935050604085013567ffffffffffffffff8111156110c3576110c2610d78565b5b6110cf87828801610f1a565b925050606085013567ffffffffffffffff8111156110f0576110ef610d78565b5b6110fc8782880161103b565b91505092959194509250565b61111181610e7b565b82525050565b600060208201905061112c6000830184611108565b92915050565b60006020828403121561114857611147610d73565b5b600061115684828501610fbd565b91505092915050565b61116881610f94565b82525050565b6000602082019050611183600083018461115f565b92915050565b6000806000606084860312156111a2576111a1610d73565b5b60006111b086828701610fbd565b93505060206111c186828701610da4565b92505060406111d286828701610da4565b9150509250925092565b60008115159050919050565b6111f1816111dc565b82525050565b600060208201905061120c60008301846111e8565b92915050565b7f4e487b7100000000000000000000000000000000000000000000000000000000600052603260045260246000fd5b600081905092915050565b50565b600061125c600083611241565b91506112678261124c565b600082019050919050565b600061127d8261124f565b9150819050919050565b600082825260208201905092915050565b7f5769746864726177206661696c00000000000000000000000000000000000000600082015250565b60006112ce600d83611287565b91506112d982611298565b602082019050919050565b600060208201905081810360008301526112fd816112c1565b9050919050565b60008151905061131381610e85565b92915050565b60006020828403121561132f5761132e610d73565b5b600061133d84828501611304565b91505092915050565b600060408201905061135b6000830185611108565b6113686020830184611108565b9392505050565b7f496e76616c69642063616c6c6572000000000000000000000000000000000000600082015250565b60006113a5600e83611287565b91506113b08261136f565b602082019050919050565b600060208201905081810360008301526113d481611398565b9050919050565b60006040820190506113f0600083018561115f565b6113fd6020830184611108565b9392505050565b61140d816111dc565b811461141857600080fd5b50565b60008151905061142a81611404565b92915050565b60006020828403121561144657611445610d73565b5b60006114548482850161141b565b91505092915050565b600081519050919050565b60005b8381101561148657808201518184015260208101905061146b565b60008484015250505050565b600061149d8261145d565b6114a78185611241565b93506114b7818560208601611468565b80840191505092915050565b60006114cf8284611492565b91508190509291505056fea264697066735822122034758a42be2e770d2daf1ef996b176daa14e309059fb87c92c4cdeb0ea4f11c464736f6c63430008170033",
  "linkReferences": {},
  "deployedLinkReferences": {}
}